:020000040800F2
:10000000E0400020150200084D600008A7480008E5
:100010004960000879080008958E0008000000007B
:10002000000000000000000000000000A9670008B8
:10003000A90B000800000000BF640008F985000853
:100040002F0200082F0200082F0200082F020008CC
:100050002F0200082F0200082F0200082F020008BC
:100060002F0200082F0200082F0200082F020008AC
:100070002F0200082F0200082F0200082F0200089C
:100080002F0200082F0200087D0500082F0200083B
:100090002F0200082F0200082F020008AB0B0008F7
:1000A0002F0200082F0200082F0200082F0200086C
:1000B000898600082F020008998600082F02000890
:1000C0002F0200082F0200082F0200082F0200084C
:1000D0002F020008758E00082F020008858E000888
:1000E0002F0200082F0200082F0200082F0200082C
:1000F000B98600082F0200082F0200082F0200080E
:100100002F0200082F020008A98600082F0200080D
:100110002F020008718B00082F0200082F02000830
:100120002F0200082F0200082F0200082F020008EB
:1001300000F002F800F05FF80AA090E8000C82449A
:100140008344AAF10107DA4501D100F054F8AFF277
:10015000090EBAE80F0013F0010F18BFFB1A43F0A5
:100160000103184794E80000B4E800000A444FF087
:10017000000C10F8013B13F0070408BF10F8014B06
:100180001D1108BF10F8015B641E05D010F8016B4B
:10019000641E01F8016BF9D113F0080F1EBF10F8AF
:1001A000014BAD1C0C1B09D16D1E58BF01F801CBD2
:1001B000FAD505E014F8016B01F8016B6D1EF9D555
:1001C0009142D6D37047000000230024002500266A
:1001D000103A28BF78C1FBD8520728BF30C148BFAA
:1001E0000B607047642900F07780002070471FB5CE
:1001F0001FBD10B510BD00F093F91146FFF7F7FFD2
:100200000AF0DCF800F0B1F903B4FFF7F2FF03BC29
:1002100009F05CFA0948804709480047FEE7FEE715
:10022000FEE7FEE7FEE7FEE7FEE7FEE7FEE7FEE7A6
:1002300004480549054A064B7047000085860008BA
:1002400031010008E03A0020E0400020E03C0020BE
:10025000E03C0020704700000FB4044910B503AA29
:10026000029800F027F910BC5DF814FB2C00002068
:100270002DE9F0410E460446002020622046E16848
:10028000884730B3252805D0D4E901219047206A5A
:10029000401CF2E7E168204600278847050018D097
:1002A000A5F14100192802D820354FF400673246E5
:1002B000294620462760FFF795FF40B1012804D06A
:1002C000F61D26F007060836D8E7361DD6E728467D
:1002D000DAE7206ABDE8F0812DE9F0410646002406
:1002E00010687529314616A510D0AFF3008000289C
:1002F00002DA404213A507E031688A0701D512A54A
:1003000002E0490704D511A5012401E0AFF3008004
:1003100000210A2206F1240709E0B0FBF2FCB0FB41
:10032000F2F302FB1C00303078541846491C0028B8
:10033000F3D123462A463046BDE8F04100F060B8CC
:10034000000000002D0000002B0000002000000035
:100350004FF000020429C0F0128010F0030C00F0EE
:100360001B80CCF1040CBCF1020F18BF00F8012B6C
:10037000A8BF20F8022BA1EB0C0100F00DB85FEA3A
:10038000C17C24BF00F8012B00F8012B48BF00F806
:10039000012B70474FF0000200B513469446964675
:1003A000203922BFA0E80C50A0E80C50B1F1200188
:1003B000BFF4F7AF090728BFA0E80C5048BF0CC036
:1003C0005DF804EB890028BF40F8042B08BF704794
:1003D00048BF20F8022B11F0804F18BF00F8012B06
:1003E0007047704770477047704710B500F074F859
:1003F000006810BD10B5044600F06EF8046010BD32
:100400002DE9F0470D4699469246044600F124082E
:100410000168880604D5E06921F01001216000E040
:100420000120A84201DD471B00E00027A1697A19DD
:1004300002EB0900081AA0612078C00602D4204609
:10044000AFF30080002608E0D4E901211AF8060085
:100450009047206A401C761C20624E45F4DB2078D1
:10046000C0060AD52046AFF3008006E0D4E901219A
:1004700030209047206A401C2062381EA7F10107F7
:10048000F4DC07E0D4E9012118F805009047206A60
:10049000401C2062281EA5F10105F3DC2046AFF3C5
:1004A00000802078000602D50220BDE8F0870120F8
:1004B000FBE70000074B70B50D467B4400F015F8D4
:1004C0000446284600F024F810B14FF0FF3070BD0C
:1004D000204670BDE39D000000487047803A002030
:1004E00001694A1C02610878704700B58FB0CDE9F8
:1004F00001310021059105497944CDE903101146E8
:100500006846FFF7B5FE0FB000BD0000E5FFFFFF36
:10051000007B00F08000704700487047803A002060
:100520007546FFF7F9FFAE4605006946534620F0D1
:100530000700854618B020B5FFF77AFEBDE82040D9
:100540004FF000064FF000074FF000084FF0000B8F
:1005500021F00701AC46ACE8C009ACE8C009ACE842
:10056000C009ACE8C0098D46704710B50446AFF32A
:1005700000802046BDE81040FFF746BE10B5034896
:1005800001F036F8024801F033F810BDB003002046
:10059000E003002070B5044600252068806800F064
:1005A000010018B32068806820F00100216888608D
:1005B00001F048FD054613E001F044FD401B022810
:1005C0000ED92068806800F0010048B1A06A40F0B0
:1005D0001000A062E06A40F00100E062012070BDFE
:1005E0002068806800F001000028E5D10020F6E7CF
:1005F00038B504460025002000902068806800F08F
:10060000010078BB2068806840F0010021688860A4
:10061000194800681949B0FBF1F0009002E0009819
:10062000401E009000980028F9D101F00BFD05460E
:1006300019E001F007FD401B022814D920688068EA
:1006400000F0010078B9A06A40F01000A062E06AF2
:1006500040F00100E06200BF002084F8240000BFE9
:10066000012038BD05E02068806800F00100002806
:10067000DFD00020F5E700003C00002040420F00E2
:100680002DE9F04F87B053480088A0F57A704000FC
:10069000032190FBF1FABAF1000F01DA4FF0000AE2
:1006A000BAF1640F01DD4FF0640A4B49C8680BF0E2
:1006B000E7FB0746494A4A4B0BF0D2F805460BF0D8
:1006C00039F88146B9F1000F01DAC9F1000945494D
:1006D000C8680BF0D5FB0746404A414B0BF0C0F809
:1006E00005460BF027F80446002C00DA64423E4829
:1006F000007808B9012000E000203B4908703B4821
:10070000007801281AD13A4800680BF049FD0546E7
:10071000384800680BF044FD064600200290039024
:1007200004900590009003462A463146019032A07D
:10073000FFF792FD00202D49087047E02A48007815
:10074000C8B93548008935490989344AD288334BBC
:100750009B88CDE90232CDE90410304840882F490A
:100760000988CDE900102C48037B027851462CA063
:10077000FFF772FD2AE03249324800680BF0ACFD09
:1007800083460BF00DFD05462F49304800680BF0FD
:10079000A3FD83460BF004FD06460F4908680BF0E5
:1007A000FFFC07460F4908680BF0FAFC8046284812
:1007B000006828490968CDE90265CDE9001026489E
:1007C00003883A46414625A0FFF746FD07B0BDE83D
:1007D000F08F000002000020C80A00209A99999921
:1007E0009999F13FB80A00206C020020CF00002048
:1007F00068000020540000207B4325643A25643AB9
:1008000025643A25643A25643A25643A25643A25F4
:10081000643A25647D240000243A0020103A002028
:100820007B4125643A25643A25643A25643A256477
:100830003A25643A25643A25643A25647D2400000B
:100840000000C8424800002000007A444400002014
:10085000A8020020A0020020AC0200207B422564F8
:100860003A25643A25643A25643A25643A25643A7F
:1008700025647D240000000000BFFEE70F480078DB
:1008800018B10E480078012806D10D480D490860BE
:100890000D480E49086010E008480078022806D18B
:1008A0000B48084908600B480849086005E00A48F9
:1008B0000449086009480549086070470B0000209A
:1008C000D589573E100000209EEF273E14000020DF
:1008D000A3540A3E713D0A3E308C0D3E8D976E3E0C
:1008E00010B502460B460020012B08D1002104E080
:1008F000084C645C60404C1CE1B29142F8DB43B9A7
:10090000002104E0044C645C60404C1CE1B2914264
:10091000F8DB10BDB80B0020E80B00202DE9F05FDC
:1009200005460C46124E1348016820460BF0D4FCD5
:1009300083461148016858460BF0CEFA804631468E
:100940004FF07E500BF0D0FD824641460BF0C4FCC8
:100950000746314628460BF0BFFC814639460BF06E
:10096000BBFA0549086008460068BDE8F09F000032
:100970000AD7A33C2C0300206C0300202DE9F05F74
:1009800005460C46124E1348016820460BF0A4FCA5
:1009900083461148016858460BF09EFA804631465E
:1009A0004FF07E500BF0A0FD824641460BF094FCC8
:1009B0000746314628460BF08FFC814639460BF03E
:1009C0008BFA0549086008460068BDE8F09F000002
:1009D0000AD7A33C2C030020AC0300202DE9F041F2
:1009E0001B4800880BF030FC07461A490BF0E2FA6E
:1009F00006461949886819490BF06EFC0746012123
:100A000000F080F81649886814490BF065FC074629
:100A1000022100F077F80321304600F073F803203C
:100A200000F024F8054600240DE000BF0D480068E2
:100A300000F040000028F9D00B48005D0949091D6D
:100A40000860601CC4B2AC42EFDBBDE8F08100007E
:100A5000020000200000C842B80A002000007A44CA
:100A6000C80A0020003801408C0A002001460A29EB
:100A700000DC09B9002070472420214A10700B299E
:100A80003CD2DFE801F03B060B10151A1F24292F7A
:100A9000350005201A4A50710620ECE70920184A53
:100AA00050720A20E7E70D20154A50730E20E2E746
:100AB0001120134A50741220DDE71520104A50759A
:100AC0001620D8E719200E4A50761A20D3E71D20A9
:100AD0000B4A50771E20CEE72120094A82F82100D8
:100AE0002220C8E72520064A82F825002620C2E7F2
:100AF0002920034A82F829002A20BCE70020BAE70F
:100B00008C0A002013B50C460A2C00DC04B91CBD6D
:100B10000B2C43D2DFE804F042060C12181E242AE4
:100B200030363C0001221F49684600F047F835E0A6
:100B300005221C49684600F041F82FE009221949B6
:100B4000684600F03BF829E00D221649684600F09F
:100B500035F823E011221349684600F02FF81DE014
:100B600015221049684600F029F817E019220D49AE
:100B7000684600F023F811E01D220A49684600F09B
:100B80001DF80BE021220749684600F017F805E040
:100B900025220449684600F011F800BF00BF00BFDD
:100BA000B5E700008C0A0020704710B54FF40070C4
:100BB00001F08AF810BD72B600BFFEE730B50346FB
:100BC0001C788C545D78541C0D559D78941C0D55E3
:100BD000DD78D41C0D5530BD2DE9FF478246BAF1B2
:100BE000010F02D105F080FC0CE14421D02003F07C
:100BF0005CFE04464321D02003F057FE04EB0020A6
:100C000000B2814908804621D02003F04EFE044600
:100C10004521D02003F049FE04EB002000B27B49BF
:100C200008804821D02003F040FE04464721D02010
:100C300003F03BFE04EB002000B2754908803C2124
:100C4000D02003F032FE04463B21D02003F02DFEDD
:100C500004EB002000B26F4908803E21D02003F051
:100C600024FE04463D21D02003F01FFE04EB0020AB
:100C700000B2694908804021D02003F016FE0446E6
:100C80003F21D02003F011FE04EB002000B26349A5
:100C900008800846B0F900000AF07BFDCDE90001AC
:100CA0005D48B0F900000AF074FD0646DDE9002356
:100CB00008F056FF00225A4BCDE902010AF0D0FDA0
:100CC00004464FF0C042574B0AF0A0FB80460AF0A2
:100CD00031FD00B2544908805048B0F900000AF0D4
:100CE00058FDCDE900014B48B0F900000AF051FD74
:100CF0000646DDE9002308F033FF80460022484B1A
:100D00000AF0AEFD04464FF0C042464B0AF07EFBAF
:100D1000CDE902010AF00EFD00B2444908803A48CC
:100D2000B0F900000AF035FD04460022404B0AF0FD
:100D30006DFB06460AF0FEFC00B2334908803348DA
:100D4000B0F900000AF025FD04460022384B0AF0F5
:100D50005DFB06460AF0EEFC00B22C490880BAF1B1
:100D6000020F26D12848B0F900000BF055FA0446CE
:100D70002D48B0F900000BF04FFA0546214604F06B
:100D800029F880F000402B4908602048B0F90000A5
:100D90000BF042FA04462548B0F900000BF03CFA8B
:100DA0000546214604F04EF980F0004022490860D3
:100DB00028E0BAF1030F25D11348B0F900000BF079
:100DC0002BFA04461848B0F900000BF025FA054646
:100DD0002146FFF7A3FD80F00040164908600B484C
:100DE000B0F900000BF018FA04461048B0F9000002
:100DF0000BF012FA05462146FFF7C0FD80F00040D7
:100E00000D490860BDE8FF87920000209600002091
:100E1000940000208C000020880000208A00002020
:100E200000806640FB2109408E00002090000020D9
:100E300000605040D4020020D802002010B51C4AA7
:100E40009168106803F04AFF04460BF0E5F9184971
:100E50004860184A9168106803F07EFF04460BF062
:100E6000DBF9144948601448007818B1124800783A
:100E700008280BD10E49486805F082F80C494860F3
:100E80000C49486805F0AEF80A49486008490B4A21
:100E90004868514205F0F2FA054948600549074A99
:100EA0004868514205F0EAFA0249486010BD000066
:100EB000B80A0020C80A00205C0000200CE5FFFFF3
:100EC0002DE9F04F8FB006460C46C34DC34800785D
:100ED00001287DD1C2480E90A24650460AF0D0FFAC
:100EE000CDE908010AF052F902460B46CDE90A01A4
:100EF000A802BC490AF08AFA07466A02BA4B0AF00D
:100F0000D5FECDE90C010AF093F98146B74AB849FC
:100F100050460AF06DF98246002150460BF00CF95C
:100F20001CD0B44948460BF0DFFA804631460BF03E
:100F3000D3F9074649460BF03DF8AF498860AD4903
:100F400048460AF0C9FF804631460BF0C5F907460E
:100F500049460BF02FF8A949886003E0A64886604F
:100F6000A64886605146A6480BF0B6F907460AF037
:100F700087FFCDE9080150460AF082FF07460022AC
:100F80004FF0804309F0F0FB00229E4BCDE90001B9
:100F90000AF066FCCDE9040150460AF071FF0746ED
:100FA0000022994B09F0E0FB4FF00042974BCDE94E
:100FB00000010AF055FCCDE90201DDE904230AF045
:100FC00069F9CDE90601DDE908230AF06FFE00E0CA
:100FD0003AE000228E4BCDE90A010AF05BF9CDE937
:100FE0000C010AF025F983468A4958460BF07CFA31
:100FF0000D900E990BF070F9804687490AF06CFF4E
:1010000007460BF0CDF88549086085F000477A491E
:101010002A46886839460AF0EBF87749886085F0F7
:10102000004776492A46886839460AF0E1F873494C
:10103000886040F698024FF44871784800680AF0DA
:10104000EBF876490860C4E06448007800283DD198
:10105000002130460BF00CF902D284F0004400E08D
:1010600000BF6F48016820460BF036F980464FF00C
:1010700080410AF09FFF074631460BF02AFA5E498D
:1010800088606748016820460BF026F980464FF0DB
:1010900080410AF08FFF074631460AF01DFF57498D
:1010A000886085F0004754492A46886839460AF026
:1010B0009FF85149886085F0004750492A46886862
:1010C00039460AF095F84D49886082E04348007837
:1010D00002283DD1002130460BF0CAF802D284F03C
:1010E000004400E000BF4E48016820460BF0F4F8D1
:1010F00080464FF080410AF05DFF074631460BF015
:10110000E8F93D4988604648016820460BF0E4F85C
:1011100080464FF080410AF04DFF074631460AF005
:10112000DBFE3649886085F0004733492A468868E7
:1011300039460AF05DF83049886085F000472F494C
:101140002A46886839460AF053F82C49886040E0FE
:101150002248007803283CD1002130460BF088F863
:1011600002D284F0004400E000BF2D480168204610
:101170000BF0B2F880464FF080410AF01BFF0746A3
:1011800031460BF0A6F91C498860254801682046C5
:101190000BF0A2F880464FF080410AF00BFF0746A3
:1011A00031460AF099FE1549886085F000471249DA
:1011B0002A46886839460AF01BF80F49886085F08E
:1011C00000470E492A46886839460AF011F80B494B
:1011D00088600FB0BDE8F08F000060400B00002079
:1011E000AE272044976EC23FF3FDB43F0AD7A33E1B
:1011F00048E1FABE9EEFA73DB80A0020C80A0020C9
:10120000E5D0E23FD34DF43F000008409318E4BF1F
:10121000022BF93F4C37C93F0080BB4460000020DF
:10122000140000202DE9F041042005F08BFA32492A
:101230000860082005F086FA2F4948602F4800789A
:1012400090B1012804D002281AD0032830D123E01D
:10125000294908680AF0E0FF0546274949684842DD
:101260000AF0DAFF064623E0234908680AF0D4FFB3
:1012700005462149496848420AF0CEFF064617E074
:101280001D4908680AF0C8FF05461B4949684842DD
:101290000AF0C2FF06460BE0174908680AF0BCFFD7
:1012A00005461549496848420AF0B6FF064600BFA0
:1012B00000BF134928460BF00FF807461148016894
:1012C00038460BF009F804460F490AF073FE0F493F
:1012D00008600B4930460AF0FFFF074609480168DD
:1012E00038460AF0F9FF044607490AF063FE084948
:1012F0000860BDE8F0810000800000200B000020A5
:1013000000004843100000200000C344B80A002039
:10131000C80A0020F8B5044600260020009000BF4F
:1013200094F82400012801D10220F8BD012084F89E
:10133000240000BF2046FFF72DF90646002E6CD191
:10134000A06A20F4885040F00200A062022000F061
:1013500077FF35490968B1FBF0F04000009002E0EA
:101360000098401E009000980028F9D12046FFF711
:101370003FF92068806840F008002168886000F02C
:1013800061FE054616E000F05DFE401B0A2811D9FB
:101390002068806800F0080060B1A06A20F00200B8
:1013A00040F01000A06200BF002084F8240000BFBD
:1013B0000120BAE72068806800F008000028E2D128
:1013C0002068806840F004002168886000F03AFEE0
:1013D000054616E000F036FE401B0A2811D92068A9
:1013E000806800F0040060B1A06A20F0020040F0C4
:1013F0001000A06200BF002084F8240000BF01207C
:1014000093E72068806800F004000028E2D1A06A19
:1014100020F0020040F00100A06200BF002084F82C
:10142000240000BF304680E73C00002070470000E9
:1014300038B5024600230020009000BF92F8240037
:10144000012801D1022038BD012082F8240000BF0C
:101450004868072812D21068406B0C79641E04EBB0
:1014600084051F24AC40A0430D796D1E05EB850556
:101470000C68AC4020431468606327E048680D287E
:1014800012D21068006B0C79E41F04EB84051F2452
:10149000AC40A0430D79ED1F05EB85050C68AC4011
:1014A00020431468206311E01068C06A0C790D3C79
:1014B00004EB84051F24AC40A0430D790D3D05EBE2
:1014C00085050C68AC4020431468E06208680A286F
:1014D00012D31068C0680C780A3C04EB440507245A
:1014E000AC40A0430D780A3D05EB45058C68AC4047
:1014F00020431468E0600FE0106800690C7804EB8A
:1015000044050724AC40A0430D7805EB45058C68E5
:10151000AC402043146820610868102802D0086895
:10152000112827D1174C1068A0421ED1106880687E
:1015300000F40000F0B91068806840F400001468FE
:10154000A0600868102815D10F4800680F4CB0FB48
:10155000F4F000EB80004000009002E00098401E94
:10156000009000980028F9D104E0906A40F0200033
:101570009062012300BF002082F8240000BF1846BB
:1015800061E70000002401403C00002040420F00C1
:101590002DE9F04704460F48844219D100F024F8A1
:1015A00085B228460AF050FE81460B490AF094FEA7
:1015B00080460A490AF090FE074609490AF08CFE67
:1015C00006460AF009FE07490880024800F0DCF9E7
:1015D000BDE8F087E00300206740533A0000304147
:1015E0000000C8420400002001460868C06C704733
:1015F00010B504462068406800F0200020282FD154
:101600002068006800F00200022829D1A06A00F0DA
:10161000100018B9A06A40F40070A06220688068C9
:1016200000F46020B0F5602F13D1207B88B92068CA
:10163000406820F0200021684860A06A20F4807093
:10164000A062A06A00F4805018B9A06A40F00100BE
:10165000A0622046FFF79CFF6FF01200216808602F
:101660002068406800F0800080283BD12068006836
:1016700000F00400042835D1A06A00F0100018B969
:10168000A06A40F40050A0622068806800F4E04046
:10169000B0F5E04F0DD02068406800F48060D0B90C
:1016A0002068806800F46020B0F5602F13D1207BA3
:1016B00088B92068406820F0800021684860A06AEE
:1016C00020F48050A062A06A00F4807018B9A06A6B
:1016D00040F00100A0622046FFF7A8FE6FF00C006A
:1016E000216808602068406800F0400040280FD161
:1016F0002068006800F0010050B1A06A40F480301A
:10170000A062204600F0B6F86FF001002168086082
:1017100010BD00002DE9F0410446002700250026F9
:10172000A84614B90120BDE8F081A06810B1207D61
:1017300000B100BFA06A30B90020E06284F8240044
:10174000204600F099F82046FEF724FF0746A06ADD
:1017500000F01000002873D1002F7ED1A06A20F481
:10176000885040F00200A0623F4AD4E90001904254
:1017700008D1E069B0F5402F02D14FF4002002E01B
:10178000E06900E0E0690143207B41EA4000064354
:10179000A068B0F5807F02D0A068012802D14FF484
:1017A000807000E000200543207D012811D1207BBE
:1017B00038B9A069401E4FF4006141EA403005434A
:1017C00007E0A06A40F02000A062E06A40F001005B
:1017D000E0622068406820F469402843216848603E
:1017E0002068806821490840304321688860A068EB
:1017F000B0F5807F02D0A068012802D14FF480703C
:1018000000E00020B0F5807F03D1208A401E4FEA1F
:1018100000582068C06A20F4700040EA080021687F
:10182000C8622068806812490840B04209D100208F
:10183000E062A06A20F0020040F00100A06211E026
:101840000BE0A06A20F0020040F01000A062E06A05
:1018500040F00100E062012704E0A06A40F01000BF
:10186000A062012738465EE7003C0140FDF7E1FF3A
:10187000FE0E1FFF7047000010B586B00446002022
:1018800002900390049005903A492068884240D124
:1018900000BF3948806940F40070374988610846C4
:1018A000806900F40070019000BF00BF00BF0846CF
:1018B000806940F0040088610846806900F00400F7
:1018C000019000BF00BF00BF0846806940F01000D3
:1018D00088610846806900F01000019000BF00BFD9
:1018E000012002900320039002A9244800F0FAF995
:1018F000302002900320039002A9214800F0F2F961
:10190000202002900320039002A91C4800F0EAF96D
:101910002EE01C49206888422AD100BF1648806901
:1019200040F48060144988610846806900F4806052
:10193000019000BF00BF00BF0846806940F0100062
:1019400088610846806900F01000019000BF00BF68
:10195000022002900320039002A9084800F0C2F977
:1019600000221146122000F019FC122000F006FCA3
:1019700006B010BD002401400010024000100140DC
:10198000000801400028014070B50446002500BF52
:1019900094F82400012801D1022070BD012084F8B0
:1019A000240000BF2046FEF723FE0546002D7DD112
:1019B000A06A40F60161884340F48070A0623F490C
:1019C0002068884208D13E48006800F4702008B9B9
:1019D000012002E0002000E0012078B1A06A20F49C
:1019E0008010A0622068406800F4806000B3A06AA4
:1019F00020F4005040F48050A06219E0A06A40F446
:101A00008010A0622E49091F2068884203D02B490C
:101A10002068884204D12A48006800F4806000E011
:101A2000002028B1A06A20F4005040F48050A06249
:101A3000A06A00F4805020B1E06A20F00600E06265
:101A400001E00020E06200BF002084F8240000BF15
:101A5000C01E216808602068406840F020002168AE
:101A600048602068806800F46020B0F5602F16D1CF
:101A700012492068884208D11148006800F470209B
:101A800008B9012002E0002000E0012038B1206800
:101A9000806840F4A000216888600CE006E02068BF
:101AA000806840F480102168886004E000BF002056
:101AB00084F8240000BF28466FE70000002801409A
:101AC000042401400146002291F82100022808D098
:101AD0000420886300BF002081F8200000BF01209F
:101AE00070470868006820F00E000B6818600868EE
:101AF000006820F001000B68186091F84030012068
:101B00009840CB6B5860012081F8210000BF002075
:101B100081F8200000BF1046E2E7000070B50446DF
:101B2000002594F82100022803D00420A063012599
:101B3000C1E02068006820F00E002168086020687D
:101B4000006820F00100216808605C492068884234
:101B500052D95A4978392068884201D1012047E09A
:101B6000564964392068884201D1102040E0534929
:101B700050392068884201D1801539E04F493C39FD
:101B80002068884201D1801432E04C49283920680D
:101B9000884202D14FF480302AE048491439206845
:101BA000884202D14FF4801022E0444920688842E4
:101BB00001D140041CE042492068884201D1012043
:101BC00016E03F4914312068884201D110200FE00F
:101BD0003B4928312068884201D1801508E0384906
:101BE0003C312068884201D1801401E04FF48030FC
:101BF0003349091F086051E030497839206888422C
:101C000001D1012047E02D4964392068884201D183
:101C1000102040E0294950392068884201D18015C0
:101C200039E026493C392068884201D1801432E0ED
:101C3000224928392068884202D14FF480302AE0B6
:101C40001E4914392068884202D14FF4801022E0E6
:101C50001A492068884201D140041CE018492068D4
:101C6000884201D1012016E01549143120688842CC
:101C700001D110200FE0124928312068884201D19B
:101C8000801508E00E493C312068884201D180145B
:101C900001E04FF48030094980394860012084F820
:101CA000210000BF002084F8200000BF606B10B14D
:101CB0002046616B8847284670BD000080000240C6
:101CC000080402407047000010B50446044800684C
:101CD000204020B1024804602046FFF7F3FF10BD0A
:101CE000140401402DE9F847024600239C467BE19D
:101CF0004FF0010808FA03F4D1F8008008EA040064
:101D0000A0427DD1DFF8F4A2D1F80480A8EB0A0943
:101D1000D0453AD014DCB8F1030F50D009DCB8F14B
:101D2000000F31D0B8F1010F1CD0B8F1020F49D12A
:101D300020E0B8F1110F18D0B8F1120F42D11EE017
:101D4000B9F5881F25D006DCB9F5803F20D0B9F55C
:101D5000801F37D11AE0B9F5001F18D0B9F5041F5C
:101D600030D117E0D1F80CC02DE0D1F80C8008F18B
:101D7000040C28E0D1F80C8008F1080C23E0D1F81D
:101D80000C8008F10C0C1EE000BF00BF00BF00BFBC
:101D900000BF00BFD1F80880B8F1000F02D14FF0AA
:101DA000040C0BE0D1F80880B8F1010F03D14FF01B
:101DB000080C146102E04FF0080C546103E04FF08E
:101DC000000C00E000BF00BFFF2801D8904601E0F2
:101DD00002F104084646FF2802D84FEA830803E0D0
:101DE000A3F108084FEA88084746D6F800804FF06C
:101DF0000F0909FA07F928EA09080CFA07F900E0BF
:101E00007AE048EA0908C6F80080D1F8048008F0B2
:101E10008058B8F1805F6FD100BFDFF8E481D8F857
:101E2000188048F00108DFF8D891C9F81880C84632
:101E3000D8F8188008F00108CDF8008000BF00BF76
:101E40004FEAB9384FEA930958F829504FEA837896
:101E50004FEA18794FF00F0808FA09F825EA080543
:101E6000DFF8A081424502D14FF0000824E0DFF8FE
:101E70009881424502D14FF001081DE0DFF88C81C6
:101E8000424502D14FF0020816E0DFF88481424556
:101E900002D14FF003080FE0DFF87881424502D10C
:101EA0004FF0040808E0DFF87081424502D14FF09E
:101EB000050801E04FF006084FEA83794FEA1979E7
:101EC00008FA09F848EA0505DFF850814FEA930956
:101ED00048F82950D1F8048008F48038B8F5803FDC
:101EE0000BD1DFF83C81D8F8008048EA0008DFF821
:101EF0003091C9F800800AE075E0DFF82481D8F855
:101F0000008028EA0008DFF81891C9F80080D1F8AD
:101F1000048008F40038B8F5003F0ED1DFF80081E6
:101F200008F10408D8F8008048EA0008DFF8F090CB
:101F300009F10409C9F800800DE0DFF8E48008F138
:101F40000408D8F8008028EA0008DFF8D49009F1E6
:101F50000409C9F80080D1F8048008F48018B8F5A5
:101F6000801F0ED1DFF8B88008F10808D8F800808B
:101F700048EA0008DFF8A89009F10809C9F80080CC
:101F80000DE0DFF89C8008F10808D8F8008028EA06
:101F90000008DFF88C9009F10809C9F80080D1F831
:101FA000048008F40018B8F5001F0ED1DFF8708027
:101FB00008F10C08D8F8008048EA0008DFF86090C3
:101FC00009F10C09C9F800800DE0DFF8548008F130
:101FD0000C08D8F8008028EA0008DFF8449009F1DE
:101FE0000C09C9F800805B1CD1F8008028FA03F8BE
:101FF000B8F1000F7FF47CAEBDE8F8870000111047
:102000000010024000080140000C01400010014097
:102010000014014000180140001C0140080001406C
:102020000004014010B5C26821EA020302EA01047B
:1020300043EA0443036110BD0AB1016101E00B04EE
:1020400003617047014800687047000030000020BD
:10205000034800680349097808440149086070474B
:10206000300000203800002010B50848006840F01B
:10207000100006490860032000F0CEF8032000F0AD
:1020800007F800F02BF8002010BD000000200240EF
:1020900070B504460E4800784FF47A71B1FBF0F049
:1020A0000C490968B1FBF0F5284600F063FD08B162
:1020B000012070BD102C07D200222146501E00F0D6
:1020C0006DF80548046001E00120F2E70020F0E728
:1020D000380000203C0000203400002008B500BF7C
:1020E0001348806940F00100114988610846806901
:1020F00000F00100009000BF00BF00BF0846C069AB
:1021000040F08050C8610846C06900F080500090DF
:1021100000BF00BF052000F07FF800BF05494868F8
:1021200020F0E06040F00070486000BF08BD000093
:10213000001002400000014010B50146084600288A
:1021400017DB00F01F0301229A400B4B440943F8B0
:10215000242000BF00BF00BFBFF34F8F00BF00BFF0
:1021600000BF00BF00BF00BFBFF36F8F00BF00BF45
:1021700000BF00BF10BD000080E100E0014608463E
:10218000002809DB00F01F0301229A4043099B004D
:1021900003F1E023C3F8002100BF70472DE9F05F91
:1021A00080460D461646002706F0FAFE07463946D9
:1021B0002A46334601F00700C0F1070ABAF1040FBE
:1021C00002D94FF0040A01E0C0F1070AD14600F13C
:1021D000040ABAF1070F02D24FF0000A01E0A0F1A1
:1021E000030AD4464FF0010A0AFA09FAAAF1010AD1
:1021F0000AEA020A0AFA0CFA4FF0010B0BFA0CFB7E
:10220000ABF1010B0BEA030B4AEA0B0421464046F3
:1022100006F0CEFEBDE8F09F00BF00F00702064BBF
:1022200019684FF6FF031940044B0B4343EA0221A0
:10223000014B196000BF70470CED00E00000FA058B
:102240002DE9F04385B0064642A30FCB01AC0FC485
:1022500044A0006800904FF00008002500270024EB
:10226000A146042E36D004DC012E3BD0022E6BD1C9
:102270005FE0082E32D0102E66D13B4844680068DB
:1022800000F0807000B301A8C4F38341475C04F4FC
:10229000803070B134484068C0F340401DF8008081
:1022A00004F4803040B13148B0FBF8F000FB07F592
:1022B00002E02F4807FB00F52B48406800F480003F
:1022C000B0F5800F01D1A94603E068000321B0FBFF
:1022D000F1F93AE000F0D2F9814636E000F0CEF9AB
:1022E000814632E02048046A04F44070B0F5807FF3
:1022F00005D104F0020010B14FF4004918E004F4D5
:102300004070B0F5007F07D11748406A00F0020026
:1023100010B149F640490BE004F44070B0F5407F3D
:1023200006D11148006800F4003008B14FF224498A
:102330000BE000F093F90C494968C1F38131491C65
:102340004900B0FBF1F900E000BF00BF484605B00E
:10235000BDE8F08302030405060708090A0B0C0D0B
:102360000E0F1010010200000010024000127A004F
:1023700000093D00F8B5044600260025207800F04D
:10238000010000286BD000274348C06900F080504E
:1023900070B900BF4048C06940F080503E49C861F4
:1023A0000846C06900F08050009000BF00BF0127C0
:1023B0003A48006800F48070B0B93848006840F4CA
:1023C000807036490860FFF73DFE064606E0FFF7DD
:1023D00039FE801B642801D90320F8BD2F4800680E
:1023E00000F480700028F2D02B48006A00F4407599
:1023F0002DB3A08800F44070A84220D02648006A7F
:1024000020F4407501202649086000200860224819
:10241000056205F0010090B1FFF714FE064608E0E2
:10242000FFF710FE801B41F28831884201D903205A
:10243000D3E71948006A00F002000028F0D01648DF
:10244000006A20F440706168084313490862012F54
:1024500004D10846C06920F08050C86100BF2078D0
:1024600000F00200022807D10B48406820F44040E9
:10247000A168084308494860207800F0100010283F
:1024800007D10548406820F480006169084302498B
:1024900048600020A1E700000010024000700040EA
:1024A0004004424270B504460D460CB9012070BD8F
:1024B0005A48006800F00700A8420ED2574800684A
:1024C00020F007002843554908600846006800F0DE
:1024D0000700A84201D00120E9E7207800F00200BF
:1024E00002281DD1207800F00400042805D14C48B2
:1024F000406840F4E0604A494860207800F00800F5
:10250000082805D14648406840F460504449486076
:102510004348406820F0F000A16808434049486003
:10252000207800F0010078B36068012806D13C48AB
:10253000006800F4003090B90120B8E76068022814
:1025400006D13748006800F0007040B90120AEE7BE
:102550003348006800F0020008B90120A7E73048BE
:10256000406820F00300616808432D494860FFF788
:1025700069FD064609E0FFF765FD801B41F28831E1
:10258000884202D9032092E707E02548406800F01E
:102590000C006168B0EB810FEDD12048006800F0BD
:1025A0000700A8420ED91D48006820F00700284304
:1025B0001A4908600846006800F00700A84201D0E8
:1025C000012074E7207800F00400042807D11448A3
:1025D000406820F4E060E1680843114948602078D1
:1025E00000F00800082808D10D48406820F4605029
:1025F000216940EAC1000A49486000F03FF80849F3
:102600004968C1F30311074A515CC8400649086094
:1026100006480068FFF73CFD002048E70020024024
:1026200000100240C2C600083C0000203400002018
:1026300001480068704700003C00002000B5FFF72B
:10264000F7FF04494968C1F30221034A515CC840BD
:1026500000BD000000100240D2C6000800B5FFF720
:10266000E7FF04494968C1F3C221034A515CC840ED
:1026700000BD000000100240D2C60008F0B585B0D1
:102680000FF26C0C9CE8E01001A8A0E8E0101CA57B
:102690002D68009500210022002300240020194D00
:1026A000696801F00C05F5B1042D02D0082D19D18F
:1026B00001E0154819E001ADC1F38346AC5D01F4BA
:1026C000803555B10F4D6D68C5F340451DF80520A7
:1026D0000D4D6543B5FBF2F302E00C4D04FB05F331
:1026E000184602E000BF084800BF00BF05B0F0BDBB
:1026F00002030405060708090A0B0C0D0E0F101043
:10270000010200000010024000127A0000093D00A2
:10271000F8B504460CB90120F8BD207800F001009E
:10272000002878D0F848406800F00C0004280CD04D
:10273000F548406800F00C00082811D1F2484068C4
:1027400000F48030B0F5803F0AD1EF48006800F413
:10275000003000285FD0606800285CD10120DBE7F2
:1027600000BF6068B0F5803F06D1E748006840F4DC
:102770008030E549086028E0606858B9E2480068A0
:1027800020F48030E04908600846006820F480208A
:1027900008601AE06068B0F5A02F0BD1DA48006835
:1027A00040F48020D84908600846006840F4803032
:1027B00008600AE0D448006820F48030D2490860FC
:1027C0000846006820F48020086000BF606888B177
:1027D000FFF738FC054606E0FFF734FC401B642891
:1027E00001D9032098E7C848006800F400300028A9
:1027F000F2D010E0FFF726FC054606E0FFF722FCCA
:10280000401B642801D9032086E7BF48006800F414
:1028100000300028F2D1207800F00200022857D1C1
:10282000B948406800F00C0050B1B748406800F06B
:102830000C00082818D1B448406800F4803098B9DA
:10284000B148006800F0020020B12069012801D0E1
:10285000012061E7AC48006820F0F800616940EAB7
:10286000C100A949086033E02069E8B10120A74907
:102870000860FFF7E7FB054606E0FFF7E3FB401BB8
:10288000022801D9032047E79F48006800F00200B2
:102890000028F2D09C48006820F0F800616940EA06
:1028A000C1009949086013E0002098490860FFF7CB
:1028B000C9FB054606E0FFF7C5FB401B022801D90E
:1028C000032029E79048006800F002000028F2D1B8
:1028D000207800F0080008282DD1A069B8B10120A7
:1028E0008B490860FFF7AEFB054606E0FFF7AAFB41
:1028F000401B022801D903200EE78348406A00F0FC
:1029000002000028F2D0012003F0DAFD13E00020DD
:102910007F490860FFF796FB054606E0FFF792FB4C
:10292000401B022801D90320F6E67748406A00F0F0
:1029300002000028F2D1207800F00400042873D1AE
:1029400000277148C06900F0805070B900BF6E4820
:10295000C06940F080506C49C8610846C06900F009
:102960008050009000BF00BF01276A48006800F453
:102970008070B0B96748006840F4807065490860AD
:10298000FFF760FB054606E0FFF75CFB401B642891
:1029900001D90320C0E65F48006800F48070002879
:1029A000F2D000BFE068012806D15748006A40F025
:1029B00001005549086227E0E06858B95248006AAA
:1029C00020F00100504908620846006A20F0040027
:1029D000086219E0E06805280BD14B48006A40F016
:1029E0000400494908620846006A40F00100086294
:1029F0000AE04548006A20F00100434908620846A1
:102A0000006A20F00400086200BFE068A0B1FFF790
:102A100019FB054609E0FFF715FB401B41F2883121
:102A2000884202D9032077E622E03748006A00F0A6
:102A300002000028EFD012E0FFF704FB054608E093
:102A4000FFF700FB401B41F28831884201D9032087
:102A500062E62D48006A00F002000028F0D1012F44
:102A600005D12948C06920F080502749C86100BFBE
:102A7000E069C8B32448406800F00C00082860D022
:102A8000E069022848D1002020490866FFF7DAFAF9
:102A9000054606E0FFF7D6FA401B022801D90320BD
:102AA0003AE61948006800F000700028F2D1206A68
:102AB000B0F5803F07D11448406820F40030A16889
:102AC000084311494860D4E9080108430E494968A0
:102AD00021F4741108430C49486001200B49086631
:102AE000FFF7B0FA054607E03DE0FFF7ABFA401B01
:102AF000022801D903200FE60348006800F00070A7
:102B00000028F2D02FE000000010024000004242F6
:102B10008004424200700040002014490866FFF71C
:102B200091FA054606E0FFF78DFA401B022801D90D
:102B30000320F1E50E48006800F000700028F2D193
:102B400011E0E069012800D1E6E50948466806F48D
:102B50008031206A814204D106F47011606A81429A
:102B600001D00120D8E50020D6E500000000424257
:102B70000010024070B504462546681EB0F1807F03
:102B800001D301200FE0681E4FF0E02148610F21C2
:102B90004FF0FF3006F00CFA00204FF0E021886182
:102BA00007200861002070BD7047704710B50346CC
:102BB000002200BF93F83C00012801D1022010BD83
:102BC000012083F83C0000BF22F0FF00CC6840EAFF
:102BD000040222F440708C6840EA040222F480600F
:102BE0004C6840EA040222F400600C6840EA0402E7
:102BF00022F480500C6940EA040222F400504C692F
:102C000040EA040222F48040CC6940EA04021868D9
:102C1000426400BF002083F83C0000BF00BFCEE745
:102C200030B502460B4600BF92F83C00012801D1A6
:102C3000022030BD012082F83C0000BF022082F853
:102C40003D00106844681068816824F070041868BA
:102C5000044310684460144D1068A84213D0134D0B
:102C60001068A8420FD01068B0F1804F0BD0104D03
:102C70001068A84207D00F4D1068A84203D00E4D2F
:102C80001068A84205D121F08001586801431068FE
:102C90008160012082F83D0000BF002082F83C00E6
:102CA00000BF00BFC5E70000002C01400034014018
:102CB0000004004000080040000C004010B504462D
:102CC0000CB9012010BD94F83D0028B9002084F80B
:102CD0003C00204600F026F8022084F83D00211D2B
:102CE000206805F0F1FC012084F8460000BF84F85C
:102CF0003E0001213F200155402001554120015552
:102D000000BF00BF012084F8420043200155442049
:102D100001554520015500BF012084F83D000020E9
:102D2000D0E7000010B586B0044600200290039062
:102D30000490059026492068884216D100BF254896
:102D4000C06940F008002349C8610846C06900F026
:102D50000800019000BF00BF012202213220FFF7CE
:102D60001DFA3220FFF70AFA2FE02068B0F1804FF9
:102D70002BD100BF1748C06940F001001549C86158
:102D80000846C06900F00100019000BF00BF00BF0D
:102D90000846806940F0040088610846806900F0B8
:102DA0000400019000BF00BF0C200290002003909F
:102DB000049002A90848FEF795FF022201211C2079
:102DC000FFF7ECF91C20FFF7D9F906B010BD0000A1
:102DD000000C00400010024000080140014691F83C
:102DE0003D00012801D001207047022081F83D00FC
:102DF0000868C06840F001000B68D860164B08688E
:102E0000984213D0154B086898420FD00868B0F16B
:102E1000804F0BD0124B0868984207D0114B0868BE
:102E2000984203D0104B086898420CD1086880681B
:102E300000F00702062A0CD00868006840F0010084
:102E40000B68186005E00868006840F001000B6836
:102E500018600020C8E70000002C01400034014049
:102E60000004004000080040000C00402DE9F04143
:102E700004460D4600BF94F83C00012802D1022010
:102E8000BDE8F081012084F83C0000BF022084F8F6
:102E90003D002068866826F0770626F47F46206885
:102EA00086602868502833D00CDC202850D004DC01
:102EB00000284BD0102851D149E0302849D0402873
:102EC0004CD139E060282DD0702807D0B0F5805F54
:102ED00003D0B0F5005F41D10DE040E0D5E9021329
:102EE0006A68206805F04FFC2068866846F077061F
:102EF0002068866033E0D5E902136A68206805F02F
:102F000042FC2068806840F480402168886026E0A8
:102F1000EA686968206805F027FD5021206805F0FF
:102F20003DFC1CE0EA686968206805F06FFD6021DF
:102F3000206805F033FC12E0EA686968206805F053
:102F400013FD4021206805F029FC08E000BF00BF08
:102F500000BF2968206805F021FC00E000BF00BF29
:102F6000012084F83D0000BF002084F83C0000BF31
:102F700000BF85E72DE9F04104460D4614B9012054
:102F8000BDE8F08194F83D0028B9002084F83C00A9
:102F9000204600F051F8022084F83D002068806847
:102FA00044F20701884321688860211D206805F0EC
:102FB0008BFB2068D0F80880206886692068076A43
:102FC000286840EA080840F203308643A969A868E7
:102FD00040EA0120064340F60C4086434FF2F000E1
:102FE0008643E969E86840EA012006432869000150
:102FF000296A40EA0130064327F0220769696868B8
:1030000040EA011007432068C0F808802068866104
:1030100020680762012084F8460084F83E00012100
:103020003F200155012084F8420043200155012032
:1030300084F83D000020A3E710B586B004460020C8
:1030400002900390049005903149206888422CD169
:1030500000BF3048C06940F004002E49C8610846EE
:10306000C06900F00400019000BF00BF00BF084627
:10307000806940F0080088610846806900F0080017
:10308000019000BF00BFC020029000200390049078
:1030900002A92148FEF726FE032201211E20FFF788
:1030A0007DF81E20FFF76AF82FE01C49206888424F
:1030B0002BD100BF1748806940F400501549886142
:1030C0000846806900F40050019000BF00BF00BFB7
:1030D0000846806940F0100088610846806900F069
:1030E0001000019000BF00BFC0200290002003909C
:1030F000049002A90A48FEF7F5FD032201212C20C5
:10310000FFF74CF82C20FFF739F806B010BD00008F
:103110000008004000100240000C01400034014053
:10312000001001402DE9F04304460D4694F83E603E
:103130003F20075D94F84280432010F804906DB959
:10314000012E02D1B8F1010F02D00120BDE8F083B9
:10315000022084F83E0084F8420025E0042D0CD1C2
:10316000012F02D1B9F1010F01D00120EEE70221B8
:103170003F2001554320015516E0012E07D1012FB4
:1031800005D1B8F1010F02D1B9F1010F01D0012031
:10319000DCE7022084F83E0002213F200155022096
:1031A00084F842004320015515B1042D0CD105E0EF
:1031B00001220021206805F0D5FA10E00122042147
:1031C000206805F0CFFA0AE001220021206805F00E
:1031D000C9FA01220421206805F0C4FA00BF00BF2B
:1031E0002068006840F00100216808600020ADE719
:1031F00010B504466E480068B0F5C86F0CDD6D4828
:10320000007848B901206B49087000206A490870AD
:103210006A4908706A4908706A4884427ED1207FF2
:1032200004285FD168484078D8B90821654800F083
:103230001DFD6549486000BF62480068006A20F4CF
:1032400000706049096808625E480068006A40F4DE
:1032500000705C490968086200BF01205A49487043
:1032600040E00821574800F001FD57494968401ADD
:103270004F4908600968554A1268881A002801DB1E
:10328000014600E04142B1F5FA7F11DD5048007877
:10329000401C4F49087008460078052804DC4B485C
:1032A00000684349086006E000204949087002E0D0
:1032B0000020474908703E4800684449086000BF44
:1032C00040480068006A20F400703E4909680862BE
:1032D0003C480068006A3B490968086200BF00205A
:1032E00039494870207F082861D13A484078E8B9C8
:1032F0000C21344800F0BAFC3649486000BF314820
:103300000068006A20F400502E49096808622D48C0
:103310000068006A40F400502A4900E047E009686C
:10332000086200BF01202B49487040E00C2125486D
:1033300000F09CFC27494968401A27490860096841
:10334000264A1268881A002801DB014600E0414243
:10335000B1F5FA7F11DD22480078401C2049087041
:1033600008460078052804DC1C4800681A490860F3
:1033700006E000201A49087002E000201849087091
:10338000154800681549086000BF0E480068006ACB
:1033900020F400500B49096808620A480068006A76
:1033A00008490968086200BF00200A49487010BD3A
:1033B000EC0000200A000020080000200700002088
:1033C0000900002058040020780C0020F4000020A0
:1033D000020100206C0C0020E8000020F00000201A
:1033E000030100202DE9F04104460D46164600BFBA
:1033F00094F83C00012802D10220BDE8F0810120B0
:1034000084F83C0000BF96B9EB68D5E9001220684B
:1034100005F0BEFA2068806920F00C002168886100
:1034200020688069A9680843216888613DE0042E0E
:1034300013D1EB68D5E90012206805F0FBFA20688B
:10344000806920F440602168886120688069A968EB
:1034500040EA01202168886127E0082E12D1EB683C
:10346000D5E90012206805F002FB2068C06920F051
:103470000C002168C8612068C069A96808432168F8
:10348000C86112E0EB68D5E90012206805F00BFB7B
:103490002068C06920F440602168C8612068C06964
:1034A000A96840EA01202168C86100BF002084F8B3
:1034B0003C0000BF00BFA0E710B504460CB90120D6
:1034C00010BD94F83D0028B9002084F83C00204647
:1034D00000F025F8022084F83D00211D206805F049
:1034E000F3F8012084F8460000BF84F83E00012173
:1034F0003F200155402001554120015500BF00BF2C
:10350000012084F842004320015544200155452004
:10351000015500BF012084F83D000020D0E770472E
:103520002DE9F04104460D4615B994F83E000BE034
:10353000042D02D13F20005D06E0082D02D140207D
:10354000005D01E04120005D074615B994F8420096
:103550000BE0042D02D14320005D06E0082D02D1CE
:103560004420005D01E04520005D8046012F02D12E
:10357000B8F1010F02D00120BDE8F0811DB9022091
:1035800084F83E000EE0042D03D102213F200155B6
:1035900008E0082D03D102214020015502E002215C
:1035A000412001551DB9022084F842000EE0042D8F
:1035B00003D102214320015508E0082D03D1022147
:1035C0004420015502E002214520015535B1042D6A
:1035D0000BD0082D10D00C2D1CD114E02068C06831
:1035E00040F002002168C86015E02068C06840F023
:1035F00004002168C8600EE02068C06840F0080040
:103600002168C86007E02068C06840F010002168A9
:10361000C86000E000BF00BF01222946206805F015
:10362000A1F816492068884213D0154920688842BD
:103630000FD02068B0F1804F0BD01249206888422B
:1036400007D011492068884203D010492068884279
:103650000CD12068806800F00706062E0CD0206888
:10366000006840F001002168086005E020680068FB
:1036700040F001002168086000207DE7002C014037
:10368000003401400004004000080040000C0040ED
:1036900010B5044620680069C0F34000D8B1206826
:1036A000C068C0F34000B0B16FF00200216808614B
:1036B000012020772068806900F0030018B12046BF
:1036C000FFF796FD05E0204600F012F9204600F0D5
:1036D000EDF90020207720680069C0F38000D8B1A0
:1036E0002068C068C0F38000B0B16FF004002168AA
:1036F0000861022020772068806900F4407018B1CA
:103700002046FFF775FD05E0204600F0F1F8204661
:1037100000F0CCF90020207720680069C0F3C000D9
:10372000D8B12068C068C0F3C000B0B16FF0080025
:1037300021680861042020772068C06900F0030038
:1037400018B12046FFF754FD05E0204600F0D0F800
:10375000204600F0ABF90020207720680069C0F314
:103760000010D8B12068C068C0F30010B0B16FF08D
:10377000100021680861082020772068C06900F4E3
:10378000407018B12046FFF733FD05E0204600F0F9
:10379000AFF8204600F08AF9002020772068006901
:1037A00000F0010058B12068C06800F0010030B19D
:1037B0006FF0010021680861204600F0F3F92068ED
:1037C0000069C0F3C01058B12068C068C0F3C010D1
:1037D00030B16FF08000216808612046FFF7E4F9FE
:1037E00020680069C0F3801058B12068C068C0F339
:1037F000801030B16FF0400021680861204600F071
:103800004EFA20680069C0F3401058B12068C068C3
:10381000C0F3401030B16FF02000216808612046ED
:10382000FFF7C3F910BD000010B586B004460020B4
:10383000029003900490059028492068884218D18E
:1038400000BF2748806940F0040025498861084688
:10385000806900F00400019000BF00BF881502904D
:10386000022003900320059002A91E48FEF73AFAB1
:1038700032E01D49206888422ED100BF1848806977
:1038800040F00400164988610846806900F0040091
:10389000019000BF00BF00BF0846806940F00800EB
:1038A00088610846806900F00800019000BF00BFF1
:1038B000C0200290022003900320059002A909482D
:1038C000FEF710FA032002900220039003200590D7
:1038D00002A90648FEF706FA06B010BD002C01400A
:1038E000001002400008014000040040000C0140AC
:1038F000704770B504460D46164600BF94F83C006C
:10390000012801D1022070BD012084F83C0000BFD5
:1039100036B1042E1BD0082E31D00C2E5ED145E0DE
:103920002946206804F044FF2068806940F00800C0
:10393000216888612068806920F00400216888611E
:1039400020688069296908432168886147E0294621
:10395000206804F065FF2068806940F400602168F9
:1039600088612068806920F480602168886120680F
:103970008069296940EA0120216888612FE0294691
:10398000206804F08BFF2068C06940F008002168BF
:10399000C8612068C06920F004002168C8612068FF
:1039A000C069296908432168C86118E02946206870
:1039B00004F0B0FF2068C06940F400602168C8616D
:1039C0002068C06920F480602168C8612068C069EF
:1039D000296940EA01202168C86100E000BF00BFFA
:1039E00000BF002084F83C0000BF00BF8BE710B58B
:1039F00004460CB9012010BD94F83D0028B9002000
:103A000084F83C00204600F025F8022084F83D00B0
:103A1000211D206804F058FE012084F8460000BFF4
:103A200084F83E0001213F200155402001554120EE
:103A3000015500BF00BF012084F84200432001551A
:103A4000442001554520015500BF012084F83D0068
:103A50000020D0E708B5124A016891420DD100BF9D
:103A60001049896941F400610E4A916111468969E2
:103A700001F40061009100BF11E00B4A016891421E
:103A80000DD100BF0749C96941F00201054AD16162
:103A90001146C96901F00201009100BF00BF08BDD5
:103AA000002C01400010024000040040704700005C
:103AB00070B504460D4615B994F83E000BE0042D90
:103AC00002D13F20005D06E0082D02D14020005DBC
:103AD00001E04120005D012801D0012070BD1DB929
:103AE000022084F83E000EE0042D03D102213F2085
:103AF000015508E0082D03D102214020015502E0C4
:103B000002214120015501222946206804F02AFEA5
:103B10001F492068884203D01E492068884201D18D
:103B2000012000E0002028B12068406C40F40040F3
:103B30002168486416492068884213D015492068D6
:103B400088420FD02068B0F1804F0BD01249206816
:103B5000884207D011492068884203D01049206864
:103B600088420CD12068806800F00706062E0CD031
:103B70002068006840F001002168086005E02068C6
:103B8000006840F00100216808600020A6E70000FE
:103B9000002C0140003401400004004000080040B7
:103BA000000C00402DE9F04104462748844248D1EA
:103BB000FDF738FB25480078A8B125480078401C5F
:103BC000C0B2234908700A2804D1002008701F4998
:103BD000087008E01E4800780A2804DD00201C490F
:103BE00008701A4908701B480078092802D104F0AF
:103BF0009FF801E001F046FC17480168174800688B
:103C0000FDF75EF904F06EFF10B9FDF717F908E053
:103C10000020134948601349486040F2DC501249C3
:103C200008601049486808F0BBFA07460C4840682D
:103C300080F00046304608F0B3FA0546394602F0F7
:103C4000B5FDBDE8F0810000300500200100002036
:103C5000000000205C0000204800002044000020FC
:103C6000B80A0020C80A0020600000200246002098
:103C700031B1042907D0082908D00C290CD108E05B
:103C80001368586B09E01368986B06E01368D86BEB
:103C900003E01368186C00E000BF00BF7047704776
:103CA000704770472DE9F84F044620680568206882
:103CB000C668206847694FF00009CA4605F00F0939
:103CC000B9F1000F0AD105F0200038B106F020004C
:103CD00020B1204604F089FFBDE8F88FB9F1000F4C
:103CE00071D007F0010018B906F4907000286AD06E
:103CF00005F0010030B106F4807018B1206C40F07E
:103D00000100206405F0040030B107F0010018B193
:103D1000206C40F00200206405F0020030B107F092
:103D2000010018B1206C40F00400206405F0080088
:103D300048B106F0200010B907F0010018B1206C5E
:103D400040F008002064206C68B305F0200028B122
:103D500006F0200010B1204604F047FF20684069BB
:103D6000C0F3801A206C00F0080010B9BAF1000FFF
:103D700022D0204604F00EFF2068406900F0400089
:103D8000B0B12068406920F0400021684861A06B14
:103D900050B15648A16B4863A06BFDF7BFFE10B150
:103DA000A06B416B88470CE02046FFF77AFF08E0E4
:103DB0002046FFF776FF04E02046FFF772FF002061
:103DC000206489E7FFE7206B012878D105F0100017
:103DD000002874D006F01000002870D000BF00202A
:103DE000009020680068009020684068009000BF44
:103DF00000BF2068406900F04000C0B3A06B0068BD
:103E000040681FFA80F8B8F1000F2FD0A08D404510
:103E10002CDDA4F82E80A06B806920281FD020689C
:103E2000C06820F480702168C8602068406920F074
:103E30000100216848612068406920F04000216845
:103E40004861202084F83E00002020632068C0687C
:103E500020F010002168C860A06BFDF733FEA08D34
:103E6000E28D801A81B22046FFF71AFF34E7FFE7A0
:103E7000A08DE18D401A1FFA80F8E08DE8B1B8F10D
:103E8000000F1AD02068C06820F490702168C860C4
:103E90002068406920F0010021684861202084F8F2
:103EA0003E00002020632068C06820F010002168D8
:103EB000C86041462046FFF7F3FE0DE7FFE705F037
:103EC000800030B106F0800018B1204604F0A1FF58
:103ED00002E705F0400030B106F0400018B120467E
:103EE00004F073FEF8E600BFF6E60000818B0008E0
:103EF00010B504460CB9012010BDA06900B100E066
:103F000000BF94F83D0028B9002084F83C0020460A
:103F100000F028F8242084F83D002068C06820F4D0
:103F200000502168C860204604F0D2FE2068006975
:103F300020F49040216808612068406920F02A0040
:103F4000216848612068C06840F400502168C8605A
:103F500000202064202084F83D0084F83E000020EA
:103F6000CAE7000010B586B0044600200290039016
:103F70000490059060492068884243D100BF5F48A3
:103F8000C06940F480105D49C8610846C06900F40A
:103F90008010019000BF00BF00BF0846806940F05C
:103FA000100088610846806900F01000019000BF91
:103FB00000BF00BF0846806940F0200088610846C5
:103FC000806900F02000019000BF00BF88140290BB
:103FD000022003900320059002A94948FDF782FEC4
:103FE0000420029000200390049002A94548FDF7A8
:103FF00079FE012211463520FEF7D0F83520FEF774
:10400000BDF876E040492068884237D100BF3B4880
:10401000806940F48040394988610846806900F42D
:104020008040019000BF00BF00BF0846806940F09B
:10403000040088610846806900F00400019000BF18
:1040400000BF48150290022003900320059002A9AA
:104050002E48FDF747FE4FF4806002900020039049
:10406000049002A92948FDF73DFE012211462520B2
:10407000FEF794F82520FEF781F83AE024492068FD
:10408000884236D100BF1D48C06940F480201B49DA
:10409000C8610846C06900F48020019000BF00BFDD
:1040A00000BF0846806940F00800886108468069C2
:1040B00000F00800019000BF00BF08150290022028
:1040C00003900320059002A91248FDF70BFE4FF460
:1040D0000060029000200390049002A90D48FDF7B3
:1040E00001FE012211462720FEF758F82720FEF78F
:1040F00045F806B010BD000000500040001002401E
:104100000010014000140140003801400008014047
:1041100000480040000C014070B504460D461646AC
:1041200094F83E00202816D105B10EB9012070BDCB
:1041300000BF94F83C00012801D10220F7E70120DC
:1041400084F83C0000BF0020206332462946204608
:1041500004F03CFEEBE70220E9E700002DE9F04720
:1041600086B08246FE48824558D1FE480478012038
:10417000FD4908700020FD490870FD490870FD499F
:104180000870FD48FD49097844547B2C03D0FB4856
:104190000078002805DDF9480078401CF7490870D0
:1041A00002E00020F5490870F44800780B282FD170
:1041B0000020F2490870F048807A7D2828D100213B
:1041C0000920FCF78DFBEC49497A884220D1EA4A64
:1041D0001179D07804F0B8FEE9490860E64A117A0E
:1041E000D07904F0B1FE0546E6480078012807D1F1
:1041F0002946E348006804F04FFEE349086006E002
:10420000DD4A117AD07904F09FFEDF49086000BFD3
:104210000122D449D248FFF77FFF00BFDB48824527
:104220007DD1DB480078DB490860D048007848BB86
:1042300008460068412821D1D7480068401CD6496B
:104240000860052815D1002008600120C7490870C2
:104250000020C7490870C7490870C3490870CF4893
:10426000CF490860C7480078012803D1CD48CE491E
:10427000086021E1CD48CC4908601DE10020C64915
:10428000086019E1C3480068412809DBC14800689B
:10429000482805DCBF4800784038C54908707EE0F2
:1042A000BC4800685A2803D10020C149087076E054
:1042B000B84800680A2804DCB6480078BC49087091
:1042C0006DE0B448006859282AD1BA49B44800685A
:1042D00008F00AF9B24904460860B74907F0C8FF78
:1042E00002D2B548AE490860A6480078012856D0E9
:1042F000AD48006807F0C4FD0646B04AB04B07F071
:10430000D5FC044606F094FFA74980460860AD49F5
:1043100007F0AEFF43D2AB48A34908603FE0D1E0CD
:104320009C48006858282BD1A2499D48006807F096
:10433000D3FD9B4904460860A34908F099F802D2CE
:10434000A148974908608F480078012827D09648EF
:10435000006807F095FD0646984A994B06F09AFFCB
:10436000044606F065FF9049804608604FF07E5194
:1043700008F07EF813D24FF07E508B4908600EE0B3
:10438000844800687B2803D101209049087006E02A
:10439000804800687D2802D102208C4908708B4833
:1043A000007801280AD17B4800788949894A127827
:1043B000885488480078401C8649087083480078F3
:1043C000022879D18248C078502803D1012082493F
:1043D000087064E07E484078232860D07D480078EB
:1043E0007E49087035E07B4909787C4A1278881A42
:1043F00007F0CFF9804642460B460020784906F088
:10440000B3F906460F4675490978491E704A515C52
:10441000A1F1300007F0BDF932463B46CDE900017D
:1044200007F01EFA04460D466E48006807F028FDA6
:1044300022462B46CDE9020106F02CFFCDE904010E
:1044400006F0F6FE6749086064480078401E63493C
:104450000870624800780428C5DA5D484078303832
:1044600009281AD2DFE800F0050A121314151617EE
:1044700018005C4800684A4908600FE05A495948EA
:10448000006807F097FD5949086007E006E005E07D
:1044900004E003E002E001E000E000BF00BF002014
:1044A0004A4908704B4908704C4908704D490860EA
:1044B00032214748FBF76EFF012235493348FFF7A9
:1044C0002BFED9E14A488245FBD14A4804784A4844
:1044D0000078052842DD484800782A283FDA464817
:1044E0000078032190FBF1F201FB1200A0B94348D0
:1044F0000078C0EBC0014248084404803E48007880
:10450000401C3D4908703F4800786040C0B23E49B9
:10451000085C3C490870A9E137480078032190FB0A
:10452000F1F201FB1200012878D134480078C0EB89
:10453000C00133480844008800EB042081B22F48B2
:104540000078C0EBC0022E48104401802A48007851
:10455000401C294908702B48007858E0FAE077E0C1
:1045600004060020CC0000200900002008000020E4
:10457000070000200A000020E80B0020D1000020E6
:10458000440000200B0000204800002048060020C6
:10459000CD000020D8000020D40000200000AF4350
:1045A000540000207CD9203F58000020DB0F493FF9
:1045B000D00000200000C841000052439A99999908
:1045C0009999B93F7CD9203E00004844DC00002086
:1045D000080C0020DD000020CF000020DE000020BD
:1045E00000002440E000002000007A446800002021
:1045F000C0050020CE000020E4000020E6000020DE
:10460000A20D0020E5000020A2DB000806E06040CB
:10461000C0B29B49085C9B49087027E19A48007822
:10462000C0EBC00199480844847097480078401C4A
:104630009549087096480078401C95490870914843
:1046400000786040C0B28E49085C8E4908700DE168
:104650008F4800782A3805287AD2DFE800F0031561
:104660002D3F57008948801FA0F85A40884800789D
:10467000401C87490870834800786040C0B2804978
:10468000085C8049087064E08048801FB0F85A00D8
:1046900000EB04207D49891FA1F85A007C4800786E
:1046A000401C7B490870774800786040C0B274496C
:1046B000085C744908704CE07448801FA0F85C40A6
:1046C00073480078401C724908706E48007860405A
:1046D000C0B26B49085C6B4908703AE06B48801FB8
:1046E000B0F85C0000EB04206849891FA1F85C0069
:1046F00067480078401C664908706248007860404E
:10470000C0B25F49085C5F49087022E05F48801FC3
:1047100080F85E4090F85E005A49097888420AD1D4
:1047200005F0ECFA5B480088401C5A4908800120DB
:104730005949087004E05F215448801FFBF708FEC8
:10474000002050490870524908704F49087000BF56
:1047500000BF8BE04E48007806286ED2DFE800F0FC
:10476000031C35465C6E542C10D14848801F0470E1
:1047700047480078401C464908704248007860402D
:10478000C0B23F49085C3F49087004E0002040493E
:1047900008703C49087068E02C2C10D13B48801F01
:1047A00044703B480078401C39490870354800780F
:1047B0006040C0B23249085C3249087004E0002011
:1047C000334908702F4908704FE03048801F4480FB
:1047D0002F480078401C2E4908702A480078604015
:1047E000C0B22749085C274908703EE02748801F6F
:1047F000408800EB04202549891F48802448007820
:10480000401C234908701F4800786040C0B21C4912
:10481000085C1C49087028E01C48801F84801C48E4
:104820000078401C1A490870164800786040C0B2F1
:104830001349085C1349087017E015E01348801FFE
:10484000808800EB04201149891F88801048007877
:10485000401C0F4908700B4800786040C0B20849FE
:10486000085C0849087000E000BF00BF01220B4946
:104870000B48FFF751FC00BF06B0BDE8F087000011
:10488000A2DB0008E5000020E6000020A20D0020C9
:10489000E4000020C8000020CA000020CE00002054
:1048A000C0050020704700BFFEE770B505460E4604
:1048B000002400F0F9F8284600F0C4F8641C00F069
:1048C0004BF9304600F0BEF8641C00F045F900F0EA
:1048D000EBF8691CC8B200F0B5F8641C00F03CF9B4
:1048E000002000F077F8044600F012F9204670BD71
:1048F00010B500200E4908600E48006820F0704096
:104900000C4908600846006840F0405008600020EC
:104910000949C1F8BC01012003F04AFE0120044905
:10492000086003F045FE00200349C1F8B80110BD3E
:10493000B8812142040C01400080214200B585B0BD
:104940000020019002900390049000BF0C48806901
:1049500040F008000A4988610846806900F00800B4
:10496000009000BF00BF4FF4404001900120029032
:104970000320049001A90348FDF7B4F905B000BD78
:1049800000100240000C014010B500200E490860E4
:104990000E48006820F070400C4908600846006826
:1049A00040F04050086001200949C1F8BC0103F003
:1049B000FFFD01200449086003F0FAFD00200449CE
:1049C000C1F8B80110BD0000B8812142040C0140BB
:1049D0000080214270B5054600241748006820F089
:1049E0007040154908600846006840F000400860C3
:1049F000002616E0002011490860022003F0D8FDCF
:104A000001200F49C1F8B8016006040E0B487C383C
:104A1000006808B1601CC4B2022003F0C9FD701C1C
:104A2000C6B2082EE6DB15B1FFF762FF01E0FFF723
:104A3000ABFF204670BD0000040C0140B88121424C
:104A40000080214270B504461448006820F0704090
:104A5000124908600846006840F040500860002095
:104A60000F490860002516E0E0090D49091D08609E
:104A70006006040E012003F09BFD01200949C1F8E6
:104A8000B80103F095FD002005490860012003F0FE
:104A90008FFD681CC5B2082DE6DB70BD040C01401B
:104AA000B88121420080214210B51648006820F0EC
:104AB0007040144908600846006840F040500860A3
:104AC0000120114908601148D0F83C0108B90020C4
:104AD00010BD01200C49091F086003F069FD00208A
:104AE0000A49C1F8BC0108488038006808B10020B4
:104AF000EEE7012003F05CFD00200349091F086078
:104B00000120E5E7040C0140BC81214200802142E4
:104B100010B50E48006820F070400C490860084647
:104B2000006840F0405008600020094908600949C9
:104B3000C1F8BC01012003F03BFD012004490860DD
:104B40000449C1F8BC0103F033FD10BD040C014061
:104B5000B88121420080214210B500241548006828
:104B600020F07040134908600846006840F000409B
:104B7000086001201049086003F01AFD01200F4968
:104B8000C1F8B80103F014FD0AE0601CC4B2322C75
:104B900003DDFFF7BDFF002010BD012003F008FD7D
:104BA0000548803800680028EFD10349091F0860D4
:104BB0000120F1E7040C0140BC8121420080214228
:104BC00070B505460E46144631462846FFF76DFE81
:104BD0002070012070BDF8B506460F4614461D46EC
:104BE0006A4639463046FFF7EBFF2DB10120A04061
:104BF0009DF80010084305E00120A0409DF800103A
:104C000021EA0000C0B200909DF8002039463046ED
:104C100000F036F8F8BD2DE9F843074688461446FB
:104C20001D46089E6A4641463846FFF7C9FF28B32D
:104C3000601CFF2101FA00F0C4F108012944491E5B
:104C4000FF220A41104300F0FF09C5F1080006FAEF
:104C500000F0C6B2C4F1070006419DF8000000EA6A
:104C6000090000909DF80000304300909DF800205E
:104C70004146384600F004F8BDE8F8830020FBE721
:104C800037B504460D4602AB01222946204600F006
:104C900001F83EBD2DE9F04180460D4616461F46FF
:104CA0000024FFF701FF4046FFF7CCFEFFF754FF5B
:104CB0002846FFF7C7FEFFF74FFF00BF06E0385D4D
:104CC000FFF7C0FEFFF748FF601CC4B2B442F6DB3A
:104CD000FFF71EFF0120BDE8F08100002DE9F0473D
:104CE00004460D462946204607F0F3FB15490860A7
:104CF000084601681448006807F0EEFA8046134839
:104D000001681048006807F0EFFB81461048016811
:104D1000484607F0E1FA0746414607F0DDF8064647
:104D20000C480168304607F0D7F80A490860054882
:104D30000068064908600748006807F031FABDE8D6
:104D4000F087000004020020240100200C02002053
:104D500020010020080200202DE9F04704460D46FE
:104D60002946204607F0B5FB15490860084601684A
:104D70001448006807F0B0FA8046134801681048EC
:104D8000006807F0B1FB814610480168484607F00B
:104D9000A3FA0746414607F09FF806460C4801680B
:104DA000304607F099F80A49086005480068064946
:104DB00008600748006807F0F3F9BDE8F0870000D5
:104DC00010020020240100201802002020010020F1
:104DD000140200202DE9F05F05460C46894E8A4FEB
:104DE0004FF07C584FF0010988480168204607F0D1
:104DF0007BFB834686480168584607F06DFA824679
:104E000084480168504607F067F882490860824884
:104E10004168304607F068FB82467F48816850460B
:104E200007F062FB7D4908607B48C06880F0004065
:104E300048607948C06880F0004088600846C760D4
:104E400008687349096807F047FA824672480168A2
:104E5000504607F041F870490860704948686C494D
:104E6000096807F039FA82466B484168504607F0F6
:104E700033F869494860694988686549096807F0F5
:104E80002BFA824664488168504607F025F862494B
:104E900088606249C8685E49096807F01DFA824661
:104EA0005D48C168504607F017F85B49C86059482B
:104EB0000168284607F018FB59490860484607F082
:104EC000C3F9824654480168504607F005FA55492F
:104ED0000860484607F0B8F982464F488168504656
:104EE00007F0FAF950490860484607F0ADF98346E3
:104EF0004C480168584607F0EFF98246414606F0F3
:104F0000EBFF4A490860084601684648006807F018
:104F100051F847490860454801684348006807F070
:104F200049F8444908603F480068434908604846DA
:104F300007F08AF9824638484168504607F0CCF9B4
:104F40003E4908603C4801683948006807F0C4F9E8
:104F5000824631480168504607F0BBFA2E49086086
:104F6000364801683248006807F0B6F982462A4898
:104F70004168504607F0ADFA274948602E4801685D
:104F80002C48006807F0A8F98246234881685046FB
:104F900007F09FFA20498860284801682548006882
:104FA00007F09AF982461C48C168504607F091FA0A
:104FB0001949C8601A4801681D48006807F08CF953
:104FC000824614480168504606F086FF1149086081
:104FD000134801681748006807F07EF982460B48BD
:104FE0000168504606F078FF0849086008460168E5
:104FF000204607F079FA1249086006480068BDE8C3
:10500000F09F00006F12833AA69B443B38030020B8
:105010002C030020340300205C030020603A0020B1
:105020003C030020400300204403002048030020EC
:105030004C0300205003002054030020580300209C
:10504000300300202DE9F05F05460C46894E8A4F5B
:105050004FF07C584FF0010988480168204607F05E
:1050600043FA834686480168584607F035F9824678
:1050700084480168504606F02FFF82490860824844
:105080004168304607F030FA82467F4881685046D2
:1050900007F02AFA7D4908607B48C06880F000402C
:1050A00048607948C06880F0004088600846C76062
:1050B00008687349096807F00FF982467248016869
:1050C000504606F009FF70490860704948686C490D
:1050D000096807F001F982466B484168504606F0BE
:1050E000FBFE69494860694988686549096807F0B5
:1050F000F3F8824664488168504606F0EDFE624946
:1051000088606249C8685E49096807F0E5F8824628
:105110005D48C168504606F0DFFE5B49C8605948EB
:105120000168284607F0E0F959490860484607F049
:105130008BF8824654480168504607F0CDF855492F
:105140000860484607F080F882464F48816850461C
:1051500007F0C2F850490860484607F075F88346E2
:105160004C480168584607F0B7F88246414606F0B9
:10517000B3FE4A490860084601684648006806F0E0
:1051800019FF47490860454801684348006806F030
:1051900011FF444908603F48006843490860484699
:1051A00007F052F8824638484168504607F094F8B4
:1051B0003E4908603C4801683948006807F08CF8AF
:1051C000824631480168504607F083F92E4908604D
:1051D000364801683248006807F07EF882462A485F
:1051E0004168504607F075F9274948602E48016824
:1051F0002C48006807F070F88246234881685046C2
:1052000007F067F920498860284801682548006848
:1052100007F062F882461C48C168504607F059F909
:105220001949C8601A4801681D48006807F054F819
:10523000824614480168504606F04EFE1149086047
:10524000134801681748006807F046F882460B4883
:105250000168504606F040FE0849086008460168AB
:10526000204607F041F91249086006480068BDE889
:10527000F09F00006F12833AA69B443B7803002006
:105280002C030020740300209C030020703A0020AF
:105290007C0300208003002084030020880300207A
:1052A0008C0300209003002094030020980300202A
:1052B0007003002010B504462CB9012204210948CE
:1052C000FCF7BAFE0DE008480068401C064908607B
:1052D000A04206DB04210348FCF7A4FE002002499B
:1052E000086010BD00100140400000202DE9F04F83
:1052F00087B081468A46002006904FF6FF760590DB
:1053000043480768B7F5487F01DD4FF4487700242C
:105310001AE0C4EBC4003F4908440588C4EBC4014B
:105320003C4A1144D1F8030000F07AF8804629463F
:10533000404600F095F830B1B54204DA2E46CDF87B
:10534000148001200690641CBC42E2DB0698002811
:1053500059D00020049003900025002435E0C4EBD0
:10536000C4002C490844B0F80080C4EBC401294AA9
:105370001144D1F8030000F053F802900599029807
:1053800007F0B2F8019000F04BF8834641460298CE
:1053900000F066F8C0B106F1640080B2404513DB4E
:1053A0001D49584607F064F80ED21C49584606F0CD
:1053B0005FFF09D25946049806F08EFD04900398C9
:1053C00040440390681C85B2641CBC42C7DB002DBE
:1053D00013DD284606F038FF01460290049806F0D7
:1053E000E9FD8346059906F077FD804600F018F840
:1053F00005900398B0FBF5F086B20598C9F8000057
:10540000AAF8006000BF069807B0BDE8F08F000062
:105410001C000020FB0D0020000070C10000704146
:1054200010B5044604E00B49204607F05DF8044639
:105430000949204607F01CF8F5D304E00549204649
:1054400006F04AFD04460549204606F011FFF5D353
:10545000204610BD0000B44300003443000034C3B4
:1054600070B505460C462846FFF7DAFF0546B4F549
:10547000827F02DBB4F57A6F01DD002070BD012070
:10548000FCE700002DE9F0410220FBF7A5FB724884
:10549000B0F9000006F0C0FE8046704906F08AFDB3
:1054A00007466F4906F018FF06466E480168304609
:1054B00006F012FD6B49086008460068FFF7B0FF70
:1054C0006849086000F0F6F86748007805287DD242
:1054D000DFE800F0032880A6B900002063490860D7
:1054E000634908605F490860624908806248008833
:1054F000401C80B260490880142800DAA9E000202E
:105500005D4908805D495E48FFF7F0FE48B15C48A0
:1055100000685C4908600020524908600120524937
:10552000087096E04F4801685648006806F0DCFFB6
:105530000646FFF775FF04462146534806F0CCFEA9
:105540000546524A5249284605F052FE0546514842
:10555000007801280AD15048444908604F4A504910
:10556000284605F045FE4249086004E000203F4916
:1055700008603F4805604B49204606F079FF0AD293
:105580004949204606F074FE05D23A480088401C7E
:105590003849088002E000203649088035480088F4
:1055A000142808DA34480088401C80B23249088048
:1055B000B0F5167F0DDB00202C4908602C490860EF
:1055C0002D4908802B490880022000E03AE0264956
:1055D00008703EE0354825490860002024490860ED
:1055E00025480088401C80B223490880C82816DB63
:1055F00000201E4908601E4908601F4908802C4889
:105600000078401C2A49087008460078022803DB0D
:1056100004201549087002E003201349087018E0BF
:105620000020124908601249086013480088401C95
:1056300080B211490880282803DB002008800A492D
:10564000087006E000BF00200849086008490860AB
:1056500000BF00BFBDE8F08194000020000083423D
:105660000AD7A33BBC0000207100002044000020AA
:1056700048000020BA000020B8000020740000207C
:1056800078000020C00000206F1283BC7CD9203F2E
:105690007CD920BF0B000020CDCCCC3D0AD7A33E47
:1056A00048E1FABE0000A0C00000A0409A9919BECF
:1056B000720000202DE9F047002408E00020314965
:1056C00021F81400304921F81400601CC4B2242CC5
:1056D000F4DB2E480668B6F5487F01DD4FF44876C6
:1056E000002E00DA0026002543E0C5EBC50028495E
:1056F00008440788C5EBC5000844D0F8038004E0DF
:105700002449404606F0E8FB80460021404606F06A
:10571000AFFDF5D304E01F49404606F0E5FE8046A4
:105720001C49404606F0A4FEF5D939464046FFF72D
:1057300097FEE8B11849404606F03CFC814606F069
:105740004BFDC4B2242C00DB23240F4830F8140096
:10575000401C0D4921F814000A4830F8140020B10B
:10576000084830F81400B84202DD064820F81470EA
:105770006D1CB542B9DB09480088401C0749088008
:10578000BDE8F087D80A0020200B00201C00002074
:10579000FB0D00200000B443000020417C000020ED
:1057A00010B5FFF7CBF800F001F810BD10B50220DE
:1057B00000F010F8012000F021F8002000F014F8AB
:1057C000002000F037F8002000F02BF8002000F057
:1057D0001FF810BD38B50446032302226B21D020E8
:1057E0000094FFF718FA38BD38B5044602230422A6
:1057F0001C21D0200094FFF70EFA38BD38B50446BE
:10580000022304221B21D0200094FFF704FA38BDA4
:1058100010B50446234601223721D020FFF7DBF9DB
:1058200010BD10B50446234605226A21D020FFF79B
:10583000D2F910BD10B50446234606226B21D020B4
:10584000FFF7C9F910BD00000EB5002000900190CF
:1058500002901348134908600021124881600173C7
:1058600001754FF46021C16100200E49486001219B
:105870000C480161FBF74EFF08B1FBF79CF90A20C9
:105880000090012001900720029069460548FBF72F
:10589000CFFD08B1FBF78FF90248FBF73BFD0EBDCA
:1058A00000240140B00300200EB5002000900190BC
:1058B0000290154815490860002114488160017361
:1058C00001754FF46021C161002010494860012139
:1058D0000E480161FBF71EFF08B1FBF76CF90B20C6
:1058E0000090012001900720029069460748FBF7CD
:1058F0009FFD08B1FBF75FF90448FBF70BFD034878
:10590000FCF742F80EBD000000280140E003002033
:1059100000B585B00020019002900390049000BF74
:105920006848806940F010006649886108468069CF
:1059300000F01000009000BF00BF00BF0846806963
:1059400040F0200088610846806900F02000009047
:1059500000BF00BF00BF0846806940F004008861B6
:105960000846806900F00400009000BF00BF00BF3F
:105970000846806940F0080088610846806900F0A8
:105980000800009000BF00BF012291034E48FCF7C1
:1059900053FB01220C214C48FCF74EFB00224FF434
:1059A00040414A48FCF748FB00224FF40041484878
:1059B000FCF742FB012238214448FCF73DFB4FF441
:1059C0000050019000200290039001A93E48FCF78E
:1059D00089F948F21C3001900120029000200390C8
:1059E0000320049001A93848FCF77CF94FF480406B
:1059F000019001200290002003900320049001A94F
:105A00003148FCF76FF940F60F000190002002903A
:105A1000039001A92E48FCF765F94CF2380001907B
:105A200001200290002003900320049001A9274840
:105A3000FCF758F94FF4004001900120029000203B
:105A400003900320049001A92148FCF74BF94FF47F
:105A500080500190012002900020039002200490C9
:105A600001A91B48FCF73EF94FF48070019000201B
:105A700002900120039001A91448FCF733F94FF478
:105A800000700190134802900120039001A90F4873
:105A9000FCF728F94FF440500190012002900020BB
:105AA00003900220049001A90848FCF71BF9012289
:105AB00002211720FCF772FB1720FCF73DFB05B015
:105AC00000BD00000010024000100140000C014029
:105AD000000801400000211000B591B000200F9097
