:020000040800F2
:10000000E040002015020008B16200080B4B000818
:10001000AD620008BD0A0008098F0008000000005A
:100020000000000000000000000000000D6A000851
:10003000ED0D000800000000236700086D86000831
:100040002F0200082F0200082F0200082F020008CC
:100050002F0200082F0200082F0200082F020008BC
:100060002F0200082F0200082F0200082F020008AC
:100070002F0200082F0200082F0200082F0200089C
:100080002F0200082F0200087D0500082F0200083B
:100090002F0200082F0200082F020008EF0D0008B1
:1000A0002F0200082F0200082F0200082F0200086C
:1000B000FD8600082F0200080D8700082F020008A7
:1000C0002F0200082F0200082F0200082F0200084C
:1000D0002F020008E98E00082F020008F98E0008A0
:1000E0002F0200082F0200082F0200082F0200082C
:1000F0002D8700082F0200082F0200082F02000899
:100100002F0200082F0200081D8700082F02000898
:100110002F020008E58B00082F0200082F020008BC
:100120002F0200082F0200082F0200082F020008EB
:1001300000F002F800F05FF80AA090E8000C82449A
:100140008344AAF10107DA4501D100F054F8AFF277
:10015000090EBAE80F0013F0010F18BFFB1A43F0A5
:10016000010318470CE900002CE900000A444FF095
:10017000000C10F8013B13F0070408BF10F8014B06
:100180001D1108BF10F8015B641E05D010F8016B4B
:10019000641E01F8016BF9D113F0080F1EBF10F8AF
:1001A000014BAD1C0C1B09D16D1E58BF01F801CBD2
:1001B000FAD505E014F8016B01F8016B6D1EF9D555
:1001C0009142D6D37047000000230024002500266A
:1001D000103A28BF78C1FBD8520728BF30C148BFAA
:1001E0000B607047642900F07780002070471FB5CE
:1001F0001FBD10B510BD00F093F91146FFF7F7FFD2
:100200000AF016F900F0B1F903B4FFF7F2FF03BCEE
:1002100009F096FA0948804709480047FEE7FEE7DB
:10022000FEE7FEE7FEE7FEE7FEE7FEE7FEE7FEE7A6
:1002300004480549054A064B70470000F986000846
:1002400031010008E03A0020E0400020E03C0020BE
:10025000E03C0020704700000FB4044910B503AA29
:10026000029800F027F910BC5DF814FB2C00002068
:100270002DE9F0410E460446002020622046E16848
:10028000884730B3252805D0D4E901219047206A5A
:10029000401CF2E7E168204600278847050018D097
:1002A000A5F14100192802D820354FF400673246E5
:1002B000294620462760FFF795FF40B1012804D06A
:1002C000F61D26F007060836D8E7361DD6E728467D
:1002D000DAE7206ABDE8F0812DE9F0410646002406
:1002E00010687529314616A510D0AFF3008000289C
:1002F00002DA404213A507E031688A0701D512A54A
:1003000002E0490704D511A5012401E0AFF3008004
:1003100000210A2206F1240709E0B0FBF2FCB0FB41
:10032000F2F302FB1C00303078541846491C0028B8
:10033000F3D123462A463046BDE8F04100F060B8CC
:10034000000000002D0000002B0000002000000035
:100350004FF000020429C0F0128010F0030C00F0EE
:100360001B80CCF1040CBCF1020F18BF00F8012B6C
:10037000A8BF20F8022BA1EB0C0100F00DB85FEA3A
:10038000C17C24BF00F8012B00F8012B48BF00F806
:10039000012B70474FF0000200B513469446964675
:1003A000203922BFA0E80C50A0E80C50B1F1200188
:1003B000BFF4F7AF090728BFA0E80C5048BF0CC036
:1003C0005DF804EB890028BF40F8042B08BF704794
:1003D00048BF20F8022B11F0804F18BF00F8012B06
:1003E0007047704770477047704710B500F074F859
:1003F000006810BD10B5044600F06EF8046010BD32
:100400002DE9F0470D4699469246044600F124082E
:100410000168880604D5E06921F01001216000E040
:100420000120A84201DD471B00E00027A1697A19DD
:1004300002EB0900081AA0612078C00602D4204609
:10044000AFF30080002608E0D4E901211AF8060085
:100450009047206A401C761C20624E45F4DB2078D1
:10046000C0060AD52046AFF3008006E0D4E901219A
:1004700030209047206A401C2062381EA7F10107F7
:10048000F4DC07E0D4E9012118F805009047206A60
:10049000401C2062281EA5F10105F3DC2046AFF3C5
:1004A00000802078000602D50220BDE8F0870120F8
:1004B000FBE70000074B70B50D467B4400F015F8D4
:1004C0000446284600F024F810B14FF0FF3070BD0C
:1004D000204670BD579E000000487047803A0020BB
:1004E00001694A1C02610878704700B58FB0CDE9F8
:1004F00001310021059105497944CDE903101146E8
:100500006846FFF7B5FE0FB000BD0000E5FFFFFF36
:10051000007B00F08000704700487047803A002060
:100520007546FFF7F9FFAE4605006946534620F0D1
:100530000700854618B020B5FFF77AFEBDE82040D9
:100540004FF000064FF000074FF000084FF0000B8F
:1005500021F00701AC46ACE8C009ACE8C009ACE842
:10056000C009ACE8C0098D46704710B50446AFF32A
:1005700000802046BDE81040FFF746BE10B5034896
:1005800001F058F9024801F055F910BDB003002000
:10059000E003002070B5044600252068806800F064
:1005A000010018B32068806820F00100216888608D
:1005B00001F06AFE054613E001F066FE401B0228CA
:1005C0000ED92068806800F0010048B1A06A40F0B0
:1005D0001000A062E06A40F00100E062012070BDFE
:1005E0002068806800F001000028E5D10020F6E7CF
:1005F00038B504460025002000902068806800F08F
:10060000010078BB2068806840F0010021688860A4
:10061000194800681949B0FBF1F0009002E0009819
:10062000401E009000980028F9D101F02DFE0546EB
:1006300019E001F029FE401B022814D920688068C7
:1006400000F0010078B9A06A40F01000A062E06AF2
:1006500040F00100E06200BF002084F8240000BFE9
:10066000012038BD05E02068806800F00100002806
:10067000DFD00020F5E700003C00002040420F00E2
:1006800000201049087001200F49087000200F4910
:1006900008700F4908700F4908700F4908700F491A
:1006A00008600F4908600F480F4908600F4800783C
:1006B000012803D10E480F49086002E00E480D4999
:1006C000086070475C000020080000200700002040
:1006D0000A00002009000020D00000204400002073
:1006E000480000200000AF43540000200B00002011
:1006F0007CD9203F58000020DB0F493F10B509206E
:100700000949087000200949087009490870094919
:1007100008700949087009490870094908600949C1
:10072000086007F00FFC10BD5C00002008000020EE
:10073000070000200A00002009000020D00000204F
:10074000440000204800002010B50446612C04D06D
:100750000A48007828B9412C03D1FFF7CFFF0120C8
:1007600010BD622C04D00548007828B9422C03D172
:10077000FFF786FF0120F3E70020F1E708000020E3
:100780002DE9F04F87B053480088A0F57A704000FB
:10079000032190FBF1FABAF1000F01DA4FF0000AE1
:1007A000BAF1640F01DD4FF0640A4B49C8680BF0E1
:1007B000A1FB0746494A4A4B0BF08CF805460AF064
:1007C000F3FF8146B9F1000F01DAC9F1000945498B
:1007D000C8680BF08FFB0746404A414B0BF07AF894
:1007E00005460AF0E1FF0446002C00DA64423E4868
:1007F000007808B9012000E000203B4908703B4820
:10080000007801281AD13A4800680BF003FD05462C
:10081000384800680BF0FEFC06460020029003906A
:1008200004900590009003462A463146019032A07C
:10083000FFF712FD00202D49087047E02A48007894
:10084000C8B93548008935490989344AD288334BBB
:100850009B88CDE90232CDE90410304840882F4909
:100860000988CDE900102C48037B027851462CA062
:10087000FFF7F2FC2AE03249324800680BF066FDCF
:1008800083460BF0C7FC05462F49304800680BF043
:100890005DFD83460BF0BEFC06460F4908680BF071
:1008A000B9FC07460F4908680BF0B4FC804628489D
:1008B000006828490968CDE90265CDE9001026489D
:1008C00003883A46414625A0FFF7C6FC07B0BDE8BD
:1008D000F08F000002000020C80A00209A99999920
:1008E0009999F13FB80A00206C020020CF00002047
:1008F00068000020540000207B4325643A25643AB8
:1009000025643A25643A25643A25643A25643A25F3
:10091000643A25647D240000243A0020103A002027
:100920007B4125643A25643A25643A25643A256476
:100930003A25643A25643A25643A25647D2400000A
:100940000000C8424800002000007A444400002013
:10095000A8020020A0020020AC0200207B422564F7
:100960003A25643A25643A25643A25643A25643A7E
:1009700025647D240000000010B54748007828B9A0
:100980000020464908604649086068E0424800780F
:10099000012807D1434800684049086000204049C9
:1009A00008605CE03C480078022807D13D480068B8
:1009B0003A4908603C483A49086050E036480078B7
:1009C000032806D1002035490860374834490860BB
:1009D00045E031480078042809D13248006880F0A9
:1009E00000402E49086030482D49086037E02A4809
:1009F0000078052809D12B48006880F0004027497D
:100A0000086000202649086029E02348007806286D
:100A100009D12448006880F000402049086023483C
:100A20001F4908601BE01C480078072806D10020F9
:100A30001A4908601D481A49086010E016480078F5
:100A4000082807D117480068144908601748144956
:100A5000086004E00020114908601149086014484A
:100A6000007801280AD181070D4800680BF06EFC60
:100A7000044610490BF0D8FA094908600E490748A6
:100A800000680BF0D1FA054908600548006880F05D
:100A900000400349086010BDD00000204400002041
:100AA0004800002054000020DB0FC93FDB0FC9BF06
:100AB0000B0000200000204100007A4400BFFEE748
:100AC0000F48007818B10E480078012806D10D486B
:100AD0000D4908600D480E49086010E0084800788C
:100AE000022806D10B48084908600B4808490860ED
:100AF00005E00A480449086009480549086070474C
:100B00000B000020D589573E100000209EEF273EA5
:100B100014000020A3540A3E713D0A3E308C0D3E65
:100B20008D976E3E10B502460B460020012B08D172
:100B3000002104E0084C645C60404C1CE1B291422E
:100B4000F8DB43B9002104E0044C645C60404C1CB9
:100B5000E1B29142F8DB10BDB80B0020E80B002099
:100B60002DE9F05F05460C46124E134801682046F9
:100B70000BF0ECFB83461148016858460BF0E6F990
:100B8000804631464FF07E500BF0E8FC82464146ED
:100B90000BF0DCFB0746314628460BF0D7FB8146BD
:100BA00039460BF0D3F90549086008460068BDE8EE
:100BB000F09F00000AD7A33C2C0300206C03002008
:100BC0002DE9F05F05460C46124E13480168204699
:100BD0000BF0BCFB83461148016858460BF0B6F990
:100BE000804631464FF07E500BF0B8FC82464146BD
:100BF0000BF0ACFB0746314628460BF0A7FB8146BD
:100C000039460BF0A3F90549086008460068BDE8BD
:100C1000F09F00000AD7A33C2C030020AC03002067
:100C20002DE9F0411B4800880BF048FB07461A49A4
:100C30000BF0FAF906461949886819490BF086FB4A
:100C40000746012100F080F81649886814490BF026
:100C50007DFB0746022100F077F80321304600F0C3
:100C600073F8032000F024F8054600240DE000BFCF
:100C70000D48006800F040000028F9D00B48005DE6
:100C80000949091D0860601CC4B2AC42EFDBBDE835
:100C9000F0810000020000200000C842B80A0020D5
:100CA00000007A44C80A0020003801408C0A002065
:100CB00001460A2900DC09B9002070472420214A96
:100CC00010700B293CD2DFE801F03B060B10151A1F
:100CD0001F24292F350005201A4A50710620ECE701
:100CE0000920184A50720A20E7E70D20154A507370
:100CF0000E20E2E71120134A50741220DDE7152080
:100D0000104A50751620D8E719200E4A50761A203E
:100D1000D3E71D200B4A50771E20CEE72120094A39
:100D200082F821002220C8E72520064A82F8250003
:100D30002620C2E72920034A82F829002A20BCE79E
:100D40000020BAE78C0A002013B50C460A2C00DC00
:100D500004B91CBD0B2C43D2DFE804F042060C1290
:100D6000181E242A30363C0001221F49684600F034
:100D700047F835E005221C49684600F041F82FE0AD
:100D800009221949684600F03BF829E00D2216496E
:100D9000684600F035F823E011221349684600F058
:100DA0002FF81DE015221049684600F029F817E0D9
:100DB00019220D49684600F023F811E01D220A4966
:100DC000684600F01DF80BE021220749684600F054
:100DD00017F805E025220449684600F011F800BF25
:100DE00000BF00BFB5E700008C0A0020704710B5B7
:100DF0004FF4007001F08AF810BD72B600BFFEE734
:100E000030B503461C788C545D78541C0D559D7884
:100E1000941C0D55DD78D41C0D5530BD2DE9FF47D0
:100E20008246BAF1010F02D105F090FC0CE1442199
:100E3000D02003F06CFE04464321D02003F067FE6F
:100E400004EB002000B2814908804621D02003F045
:100E50005EFE04464521D02003F059FE04EB00203D
:100E600000B27B4908804821D02003F050FE0446A0
:100E70004721D02003F04BFE04EB002000B275495F
:100E800008803C21D02003F042FE04463B21D020C4
:100E900003F03DFE04EB002000B26F4908803E21C4
:100EA000D02003F034FE04463D21D02003F02FFE75
:100EB00004EB002000B2694908804021D02003F0F3
:100EC00026FE04463F21D02003F021FE04EB002043
:100ED00000B2634908800846B0F900000AF093FCAC
:100EE000CDE900015D48B0F900000AF08CFC06462F
:100EF000DDE9002308F06EFE00225A4BCDE9020125
:100F00000AF0E8FC04464FF0C042574B0AF0B8FA2A
:100F100080460AF049FC00B2544908805048B0F9B4
:100F200000000AF070FCCDE900014B48B0F9000068
:100F30000AF069FC0646DDE9002308F04BFE804616
:100F40000022484B0AF0C6FC04464FF0C042464B14
:100F50000AF096FACDE902010AF026FC00B24449F3
:100F600008803A48B0F900000AF04DFC044600221F
:100F7000404B0AF085FA06460AF016FC00B23349E7
:100F800008803348B0F900000AF03DFC0446002216
:100F9000384B0AF075FA06460AF006FC00B22C49F6
:100FA0000880BAF1020F26D12848B0F900000BF0F2
:100FB0006DF904462D48B0F900000BF067F90546BD
:100FC000214604F039F880F000402B4908602048A1
:100FD000B0F900000BF05AF904462548B0F90000BA
:100FE0000BF054F90546214604F05EF980F000400C
:100FF0002249086028E0BAF1030F25D11348B0F95F
:1010000000000BF043F904461848B0F900000BF05B
:101010003DF905462146FFF7A3FD80F00040164943
:1010200008600B48B0F900000BF030F90446104896
:10103000B0F900000BF02AF905462146FFF7C0FD84
:1010400080F000400D490860BDE8FF879200002055
:1010500096000020940000208C00002088000020D2
:101060008A00002000806640FB2109408E0000209D
:101070009000002000605040D4020020D8020020E0
:1010800010B51C4A9168106803F05AFF04460BF033
:10109000FDF818494860184A9168106803F08EFFFF
:1010A00004460BF0F3F8144948601448007818B16E
:1010B0001248007808280BD10E49486805F092F8CC
:1010C0000C4948600C49486805F0BEF80A49486078
:1010D00008490B4A4868514205F002FB054948603F
:1010E0000549074A4868514205F0FAFA0249486042
:1010F00010BD0000B80A0020C80A00205C000020D3
:101100000CE5FFFF2DE9F04F8FB006460C46C34DAE
:10111000C348007801287DD1C2480E90A2465046AF
:101120000AF0E8FECDE908010AF06AF802460B462B
:10113000CDE90A01A802BC490AF0A2F907466A02F1
:10114000BA4B0AF0EDFDCDE90C010AF0ABF881468F
:10115000B74AB84950460AF085F882460021504601
:101160000BF024F81CD0B44948460BF0F7F9804640
:1011700031460BF0EBF8074649460AF055FFAF49F8
:101180008860AD4948460AF0E1FE804631460BF0E2
:10119000DDF8074649460AF047FFA949886003E0A1
:1011A000A6488660A64886605146A6480BF0CEF851
:1011B00007460AF09FFECDE9080150460AF09AFE64
:1011C000074600224FF0804309F008FB00229E4BA7
:1011D000CDE900010AF07EFBCDE9040150460AF09A
:1011E00089FE07460022994B09F0F8FA4FF00042B9
:1011F000974BCDE900010AF06DFBCDE90201DDE975
:1012000004230AF081F8CDE90601DDE908230AF09C
:1012100087FD00E03AE000228E4BCDE90A010AF09A
:1012200073F8CDE90C010AF03DF883468A49584627
:101230000BF094F90D900E990BF088F880468749D1
:101240000AF084FE07460AF0E5FF8549086085F04C
:1012500000477A492A46886839460AF003F87749F0
:10126000886085F0004776492A468868394609F043
:10127000F9FF7349886040F698024FF44871784846
:1012800000680AF003F876490860C4E06448007812
:1012900000283DD1002130460BF024F802D284F022
:1012A000004400E000BF6F48016820460BF04EF894
:1012B00080464FF080410AF0B7FE074631460BF0FA
:1012C00042F95E4988606748016820460BF03EF8A5
:1012D00080464FF080410AF0A7FE074631460AF0EB
:1012E00035FE5749886085F0004754492A4688688A
:1012F000394609F0B7FF5149886085F000475049E9
:101300002A468868394609F0ADFF4D49886082E079
:101310004348007802283DD1002130460AF0E2FF20
:1013200002D284F0004400E000BF4E48016820462D
:101330000BF00CF880464FF080410AF075FE07462E
:1013400031460BF000F93D49886046480168204667
:101350000AF0FCFF80464FF080410AF065FE074628
:1013600031460AF0F3FD3649886085F0004733497D
:101370002A468868394609F075FF3049886085F04B
:1013800000472F492A468868394609F06BFF2C49E7
:10139000886040E02248007803283CD10021304694
:1013A0000AF0A0FF02D284F0004400E000BF2D4804
:1013B000016820460AF0CAFF80464FF080410AF0DB
:1013C00033FE074631460BF0BEF81C4988602548BD
:1013D000016820460AF0BAFF80464FF080410AF0CB
:1013E00023FE074631460AF0B1FD1549886085F0B5
:1013F000004712492A468868394609F033FF0F49E9
:10140000886085F000470E492A468868394609F009
:1014100029FF0B4988600FB0BDE8F08F00006040E5
:101420000B000020AE272044976EC23FF3FDB43F6F
:101430000AD7A33E48E1FABE9EEFA73DB80A0020B6
:10144000C80A0020E5D0E23FD34DF43F0000084039
:101450009318E4BF022BF93F4C37C93F0080BB44CF
:1014600060000020140000202DE9F041042005F068
:101470009BFA32490860082005F096FA2F49486027
:101480002F48007890B1012804D002281AD00328F0
:1014900030D123E0294908680AF0F8FE05462749BB
:1014A000496848420AF0F2FE064623E023490868EC
:1014B0000AF0ECFE05462149496848420AF0E6FE7A
:1014C000064617E01D4908680AF0E0FE05461B497C
:1014D000496848420AF0DAFE06460BE017490868F8
:1014E0000AF0D4FE05461549496848420AF0CEFE86
:1014F000064600BF00BF134928460AF027FF0746EB
:101500001148016838460AF021FF04460F490AF0E5
:101510008BFD0F4908600B4930460AF017FF07465C
:101520000948016838460AF011FF044607490AF0E5
:101530007BFD08490860BDE8F081000080000020C4
:101540000B00002000004843100000200000C344AE
:10155000B80A0020C80A0020F8B50446002600207A
:10156000009000BF94F82400012801D10220F8BDAA
:10157000012084F8240000BF2046FFF70BF8064640
:10158000002E6CD1A06A20F4885040F00200A062C6
:10159000022000F077FF35490968B1FBF0F0400008
:1015A000009002E00098401E009000980028F9D1B9
:1015B0002046FFF71DF82068806840F00800216889
:1015C000886000F061FE054616E000F05DFE401BFD
:1015D0000A2811D92068806800F0080060B1A06A6C
:1015E00020F0020040F01000A06200BF002084F84C
:1015F000240000BF0120BAE72068806800F00800DE
:101600000028E2D12068806840F0040021688860EA
:1016100000F03AFE054616E000F036FE401B0A28B0
:1016200011D92068806800F0040060B1A06A20F041
:10163000020040F01000A06200BF002084F82400E7
:1016400000BF012093E72068806800F004000028B4
:10165000E2D1A06A20F0020040F00100A06200BFC9
:10166000002084F8240000BF304680E73C000020C2
:101670007047000038B5024600230020009000BFEC
:1016800092F82400012801D1022038BD012082F8FF
:10169000240000BF4868072812D21068406B0C79FC
:1016A000641E04EB84051F24AC40A0430D796D1E1D
:1016B00005EB85050C68AC4020431468606327E0A7
:1016C00048680D2812D21068006B0C79E41F04EBF7
:1016D00084051F24AC40A0430D79ED1F05EB850563
:1016E0000C68AC4020431468206311E01068C06AA5
:1016F0000C790D3C04EB84051F24AC40A0430D790C
:101700000D3D05EB85050C68AC4020431468E06294
:1017100008680A2812D31068C0680C780A3C04EBE9
:1017200044050724AC40A0430D780A3D05EB450570
:101730008C68AC4020431468E0600FE010680069DA
:101740000C7804EB44050724AC40A0430D7805EB6E
:1017500045058C68AC402043146820610868102857
:1017600002D00868112827D1174C1068A0421ED15A
:101770001068806800F40000F0B91068806840F4D8
:1017800000001468A0600868102815D10F48006890
:101790000F4CB0FBF4F000EB80004000009002E042
:1017A0000098401E009000980028F9D104E0906A4B
:1017B00040F020009062012300BF002082F8240046
:1017C00000BF184661E70000002401403C000020F3
:1017D00040420F002DE9F04704460F48844219D1DA
:1017E00000F024F885B228460AF068FD81460B49CE
:1017F0000AF0ACFD80460A490AF0A8FD07460949EF
:101800000AF0A4FD06460AF021FD074908800248B7
:1018100000F0DCF9BDE8F087E00300206740533AB0
:10182000000030410000C842040000200146086862
:10183000C06C704710B504462068406800F0200076
:1018400020282FD12068006800F00200022829D14A
:10185000A06A00F0100018B9A06A40F40070A062FD
:101860002068806800F46020B0F5602F13D1207BE1
:1018700088B92068406820F0200021684860A06A8C
:1018800020F48070A062A06A00F4805018B9A06AA9
:1018900040F00100A0622046FFF79CFF6FF01200AD
:1018A000216808602068406800F0800080283BD1F3
:1018B0002068006800F00400042835D1A06A00F018
:1018C000100018B9A06A40F40050A0622068806837
:1018D00000F4E040B0F5E04F0DD02068406800F41F
:1018E0008060D0B92068806800F46020B0F5602F77
:1018F00013D1207B88B92068406820F080002168DF
:101900004860A06A20F48050A062A06A00F4807051
:1019100018B9A06A40F00100A0622046FFF7A8FEB7
:101920006FF00C00216808602068406800F04000FB
:1019300040280FD12068006800F0010050B1A06A73
:1019400040F48030A062204600F0B6F86FF001004D
:101950002168086010BD00002DE9F0410446002711
:1019600000250026A84614B90120BDE8F081A06832
:1019700010B1207D00B100BFA06A30B90020E06244
:1019800084F82400204600F099F82046FEF702FE75
:101990000746A06A00F01000002873D1002F7ED106
:1019A000A06A20F4885040F00200A0623F4AD4E9C7
:1019B0000001904208D1E069B0F5402F02D14FF408
:1019C000002002E0E06900E0E0690143207B41EA99
:1019D00040000643A068B0F5807F02D0A0680128CF
:1019E00002D14FF4807000E000200543207D0128E3
:1019F00011D1207B38B9A069401E4FF4006141EA43
:101A00004030054307E0A06A40F02000A062E06A91
:101A100040F00100E0622068406820F469402843FB
:101A20002168486020688068214908403043216867
:101A30008860A068B0F5807F02D0A068012802D13C
:101A40004FF4807000E00020B0F5807F03D1208A41
:101A5000401E4FEA00582068C06A20F4700040EA37
:101A600008002168C8622068806812490840B042B6
:101A700009D10020E062A06A20F0020040F00100DD
:101A8000A06211E00BE0A06A20F0020040F010001C
:101A9000A062E06A40F00100E062012704E0A06A71
:101AA00040F01000A062012738465EE7003C01408C
:101AB000FDF7E1FFFE0E1FFF7047000010B586B076
:101AC0000446002002900390049005903A49206853
:101AD000884240D100BF3948806940F400703749DE
:101AE00088610846806900F40070019000BF00BF63
:101AF00000BF0846806940F004008861084680699C
:101B000000F00400019000BF00BF00BF08468069DC
:101B100040F0100088610846806900F010000190D4
:101B200000BF00BF012002900320039002A92448B7
:101B300000F0FAF9302002900320039002A9214816
:101B400000F0F2F9202002900320039002A91C4823
:101B500000F0EAF92EE01C49206888422AD100BF33
:101B60001648806940F4806014498861084680699D
:101B700000F48060019000BF00BF00BF084680698C
:101B800040F0100088610846806900F01000019064
:101B900000BF00BF022002900320039002A9084862
:101BA00000F0C2F900221146122000F019FC1220A8
:101BB00000F006FC06B010BD0024014000100240F9
:101BC00000100140000801400028014070B50446A3
:101BD000002500BF94F82400012801D1022070BD27
:101BE000012084F8240000BF2046FEF701FD0546D1
:101BF000002D7DD1A06A40F60161884340F48070D9
:101C0000A0623F492068884208D13E48006800F43D
:101C1000702008B9012002E0002000E0012078B126
:101C2000A06A20F48010A0622068406800F4806000
:101C300000B3A06A20F4005040F48050A06219E084
:101C4000A06A40F48010A0622E49091F20688842D3
:101C500003D02B492068884204D12A48006800F448
:101C6000806000E0002028B1A06A20F4005040F419
:101C70008050A062A06A00F4805020B1E06A20F099
:101C80000600E06201E00020E06200BF002084F86E
:101C9000240000BFC01E216808602068406840F032
:101CA0002000216848602068806800F46020B0F55A
:101CB000602F16D112492068884208D11148006867
:101CC00000F4702008B9012002E0002000E00120AB
:101CD00038B12068806840F4A000216888600CE07A
:101CE00006E02068806840F480102168886004E085
:101CF00000BF002084F8240000BF28466FE70000E2
:101D000000280140042401400146002291F82100EE
:101D1000022808D00420886300BF002081F820003A
:101D200000BF012070470868006820F00E000B68B3
:101D300018600868006820F001000B68186091F8CE
:101D4000403001209840CB6B5860012081F8210081
:101D500000BF002081F8200000BF1046E2E700002D
:101D600070B50446002594F82100022803D0042011
:101D7000A0630125C1E02068006820F00E00216802
:101D800008602068006820F00100216808605C4954
:101D90002068884252D95A4978392068884201D14E
:101DA000012047E0564964392068884201D110205B
:101DB00040E0534950392068884201D1801539E00C
:101DC0004F493C392068884201D1801432E04C49A7
:101DD00028392068884202D14FF480302AE04849EF
:101DE00014392068884202D14FF4801022E044491F
:101DF0002068884201D140041CE0424920688842A2
:101E000001D1012016E03F4914312068884201D1F8
:101E100010200FE03B4928312068884201D180150D
:101E200008E038493C312068884201D1801401E043
:101E30004FF480303349091F086051E03049783948
:101E40002068884201D1012047E02D49643920688B
:101E5000884201D1102040E0294950392068884249
:101E600001D1801539E026493C392068884201D1EA
:101E7000801432E0224928392068884202D14FF488
:101E800080302AE01E4914392068884202D14FF47C
:101E9000801022E01A492068884201D140041CE0E9
:101EA00018492068884201D1012016E015491431F3
:101EB0002068884201D110200FE0124928312068A3
:101EC000884201D1801508E00E493C3120688842E3
:101ED00001D1801401E04FF4803009498039486015
:101EE000012084F8210000BF002084F8200000BFFA
:101EF000606B10B12046616B8847284670BD0000BA
:101F000080000240080402407047000010B50446FB
:101F100004480068204020B1024804602046FFF7D2
:101F2000F3FF10BD140401402DE9F84702460023D9
:101F30009C467BE14FF0010808FA03F4D1F80080D9
:101F400008EA0400A0427DD1DFF8F4A2D1F80480B1
:101F5000A8EB0A09D0453AD014DCB8F1030F50D0F1
:101F600009DCB8F1000F31D0B8F1010F1CD0B8F185
:101F7000020F49D120E0B8F1110F18D0B8F1120FBB
:101F800042D11EE0B9F5881F25D006DCB9F5803FA7
:101F900020D0B9F5801F37D11AE0B9F5001F18D04D
:101FA000B9F5041F30D117E0D1F80CC02DE0D1F8FD
:101FB0000C8008F1040C28E0D1F80C8008F1080C22
:101FC00023E0D1F80C8008F10C0C1EE000BF00BF2C
:101FD00000BF00BF00BF00BFD1F80880B8F1000FFC
:101FE00002D14FF0040C0BE0D1F80880B8F1010FDA
:101FF00003D14FF0080C146102E04FF0080C54615B
:1020000003E04FF0000C00E000BF00BFFF2801D844
:10201000904601E002F104084646FF2802D84FEA44
:10202000830803E0A3F108084FEA88084746D6F87A
:1020300000804FF00F0909FA07F928EA09080CFA9D
:1020400007F900E07AE048EA0908C6F80080D1F80C
:10205000048008F08058B8F1805F6FD100BFDFF8CE
:10206000E481D8F8188048F00108DFF8D891C9F861
:102070001880C846D8F8188008F00108CDF800800C
:1020800000BF00BF4FEAB9384FEA930958F829500A
:102090004FEA83784FEA18794FF00F0808FA09F8E9
:1020A00025EA0805DFF8A081424502D14FF000087B
:1020B00024E0DFF89881424502D14FF001081DE08D
:1020C000DFF88C81424502D14FF0020816E0DFF8BC
:1020D0008481424502D14FF003080FE0DFF8788198
:1020E000424502D14FF0040808E0DFF87081424514
:1020F00002D14FF0050801E04FF006084FEA83795E
:102100004FEA197908FA09F848EA0505DFF850811D
:102110004FEA930948F82950D1F8048008F4803830
:10212000B8F5803F0BD1DFF83C81D8F8008048EA51
:102130000008DFF83091C9F800800AE075E0DFF8A8
:102140002481D8F8008028EA0008DFF81891C9F83F
:102150000080D1F8048008F40038B8F5003F0ED1B3
:10216000DFF8008108F10408D8F8008048EA000888
:10217000DFF8F09009F10409C9F800800DE0DFF8FC
:10218000E48008F10408D8F8008028EA0008DFF8A5
:10219000D49009F10409C9F80080D1F8048008F44A
:1021A0008018B8F5801F0ED1DFF8B88008F1080854
:1021B000D8F8008048EA0008DFF8A89009F108097B
:1021C000C9F800800DE0DFF89C8008F10808D8F815
:1021D000008028EA0008DFF88C9009F10809C9F8A6
:1021E0000080D1F8048008F40018B8F5001F0ED163
:1021F000DFF8708008F10C08D8F8008048EA000881
:10220000DFF8609009F10C09C9F800800DE0DFF8F3
:10221000548008F10C08D8F8008028EA0008DFF89C
:10222000449009F10C09C9F800805B1CD1F80080CA
:1022300028FA03F8B8F1000F7FF47CAEBDE8F88708
:10224000000011100010024000080140000C014085
:10225000001001400014014000180140001C014022
:10226000080001400004014010B5C26821EA0203E1
:1022700002EA010443EA0443036110BD0AB10161AB
:1022800001E00B04036170470148006870470000DB
:1022900030000020034800680349097808440149D8
:1022A00008607047300000203800002010B5084852
:1022B000006840F0100006490860032000F0CEF8E6
:1022C000032000F007F800F02BF8002010BD0000FC
:1022D0000020024070B504460E4800784FF47A7131
:1022E000B1FBF0F00C490968B1FBF0F5284600F0AD
:1022F00063FD08B1012070BD102C07D200222146D9
:10230000501E00F06DF80548046001E00120F2E77E
:102310000020F0E7380000203C00002034000020BE
:1023200008B500BF1348806940F001001149886179
:102330000846806900F00100009000BF00BF00BFA8
:102340000846C06940F08050C8610846C06900F086
:102350008050009000BF00BF052000F07FF800BF54
:102360000549486820F0E06040F00070486000BF18
:1023700008BD0000001002400000014010B50146F9
:102380000846002817DB00F01F0301229A400B4B80
:10239000440943F8242000BF00BF00BFBFF34F8FA4
:1023A00000BF00BF00BF00BF00BF00BFBFF36F8F03
:1023B00000BF00BF00BF00BF10BD000080E100E013
:1023C00001460846002809DB00F01F0301229A405D
:1023D00043099B0003F1E023C3F8002100BF7047CD
:1023E0002DE9F05F80460D461646002706F012FEE6
:1023F000074639462A46334601F00700C0F1070A6E
:10240000BAF1040F02D94FF0040A01E0C0F1070A43
:10241000D14600F1040ABAF1070F02D24FF0000AC8
:1024200001E0A0F1030AD4464FF0010A0AFA09FAC2
:10243000AAF1010A0AEA020A0AFA0CFA4FF0010BA1
:102440000BFA0CFBABF1010B0BEA030B4AEA0B0492
:102450002146404606F0E6FDBDE8F09F00BF00F0D3
:102460000702064B19684FF6FF031940044B0B4354
:1024700043EA0221014B196000BF70470CED00E0F8
:102480000000FA052DE9F04385B0064642A30FCBC4
:1024900001AC0FC444A0006800904FF00008002574
:1024A00000270024A146042E36D004DC012E3BD0A8
:1024B000022E6BD15FE0082E32D0102E66D13B4841
:1024C0004468006800F0807000B301A8C4F3834141
:1024D000475C04F4803070B134484068C0F3404039
:1024E0001DF8008004F4803040B13148B0FBF8F0B2
:1024F00000FB07F502E02F4807FB00F52B4840687A
:1025000000F48000B0F5800F01D1A94603E0680017
:102510000321B0FBF1F93AE000F0D2F9814636E050
:1025200000F0CEF9814632E02048046A04F440709D
:10253000B0F5807F05D104F0020010B14FF40049DE
:1025400018E004F44070B0F5007F07D11748406AE6
:1025500000F0020010B149F640490BE004F440706D
:10256000B0F5407F06D11148006800F4003008B192
:102570004FF224490BE000F093F90C494968C1F38C
:102580008131491C4900B0FBF1F900E000BF00BFF8
:10259000484605B0BDE8F0830203040506070809B4
:1025A0000A0B0C0D0E0F101001020000001002406B
:1025B00000127A0000093D00F8B504460026002507
:1025C000207800F0010000286BD000274348C06944
:1025D00000F0805070B900BF4048C06940F08050A2
:1025E0003E49C8610846C06900F08050009000BFB5
:1025F00000BF01273A48006800F48070B0B938483D
:10260000006840F4807036490860FFF73DFE0646DA
:1026100006E0FFF739FE801B642801D90320F8BDCE
:102620002F48006800F480700028F2D02B48006A20
:1026300000F440752DB3A08800F44070A84220D06B
:102640002648006A20F440750120264908600020D1
:1026500008602248056205F0010090B1FFF714FE02
:10266000064608E0FFF710FE801B41F288318842E1
:1026700001D90320D3E71948006A00F002000028BE
:10268000F0D01648006A20F440706168084313498E
:102690000862012F04D10846C06920F08050C8614B
:1026A00000BF207800F00200022807D10B484068E4
:1026B00020F44040A168084308494860207800F0B1
:1026C0001000102807D10548406820F48000616997
:1026D0000843024948600020A1E7000000100240C2
:1026E000007000404004424270B504460D460CB9EB
:1026F000012070BD5A48006800F00700A8420ED2C1
:102700005748006820F007002843554908600846EC
:10271000006800F00700A84201D00120E9E7207816
:1027200000F0020002281DD1207800F004000428E7
:1027300005D14C48406840F4E0604A494860207840
:1027400000F00800082805D14648406840F4605071
:10275000444948604348406820F0F000A1680843BD
:1027600040494860207800F0010078B36068012893
:1027700006D13C48006800F4003090B90120B8E769
:102780006068022806D13748006800F0007040B940
:102790000120AEE73348006800F0020008B90120CC
:1027A000A7E73048406820F00300616808432D49DE
:1027B0004860FFF769FD064609E0FFF765FD801BED
:1027C00041F28831884202D9032092E707E0254888
:1027D000406800F00C006168B0EB810FEDD120483B
:1027E000006800F00700A8420ED91D48006820F0DC
:1027F000070028431A4908600846006800F00700EF
:10280000A84201D0012074E7207800F004000428D9
:1028100007D11448406820F4E060E168084311499A
:102820004860207800F00800082808D10D4840686A
:1028300020F46050216940EAC1000A49486000F074
:102840003FF808494968C1F30311074A515CC84081
:102850000649086006480068FFF73CFD002048E78D
:10286000002002400010024036C700083C00002053
:102870003400002001480068704700003C00002040
:1028800000B5FFF7F7FF04494968C1F30221034A85
:10289000515CC84000BD00000010024046C700085F
:1028A00000B5FFF7E7FF04494968C1F3C221034AB5
:1028B000515CC84000BD00000010024046C700083F
:1028C000F0B585B00FF26C0C9CE8E01001A8A0E810
:1028D000E0101CA52D680095002100220023002493
:1028E0000020194D696801F00C05F5B1042D02D0E6
:1028F000082D19D101E0154819E001ADC1F3834657
:10290000AC5D01F4803555B10F4D6D68C5F34045A0
:102910001DF805200D4D6543B5FBF2F302E00C4DAB
:1029200004FB05F3184602E000BF084800BF00BFE3
:1029300005B0F0BD02030405060708090A0B0C0DDB
:102940000E0F1010010200000010024000127A0069
:1029500000093D00F8B504460CB90120F8BD207807
:1029600000F00100002878D0F848406800F00C0022
:1029700004280CD0F548406800F00C00082811D15C
:10298000F248406800F48030B0F5803F0AD1EF484B
:10299000006800F4003000285FD0606800285CD137
:1029A0000120DBE700BF6068B0F5803F06D1E74853
:1029B000006840F48030E549086028E0606858B954
:1029C000E248006820F48030E0490860084600686A
:1029D00020F4802008601AE06068B0F5A02F0BD1C9
:1029E000DA48006840F48020D8490860084600684A
:1029F00040F4803008600AE0D448006820F4803059
:102A0000D24908600846006820F48020086000BFB2
:102A1000606888B1FFF738FC054606E0FFF734FC34
:102A2000401B642801D9032098E7C848006800F4D7
:102A300000300028F2D010E0FFF726FC054606E043
:102A4000FFF722FC401B642801D9032086E7BF481A
:102A5000006800F400300028F2D1207800F0020075
:102A6000022857D1B948406800F00C0050B1B7486F
:102A7000406800F00C00082818D1B448406800F401
:102A8000803098B9B148006800F0020020B1206998
:102A9000012801D0012061E7AC48006820F0F8006F
:102AA000616940EAC100A949086033E02069E8B1E2
:102AB0000120A7490860FFF7E7FB054606E0FFF79E
:102AC000E3FB401B022801D9032047E79F48006829
:102AD00000F002000028F2D09C48006820F0F800C6
:102AE000616940EAC1009949086013E000209849F3
:102AF0000860FFF7C9FB054606E0FFF7C5FB401B72
:102B0000022801D9032029E79048006800F002005C
:102B10000028F2D1207800F0080008282DD1A06903
:102B2000B8B101208B490860FFF7AEFB054606E00F
:102B3000FFF7AAFB401B022801D903200EE78348B8
:102B4000406A00F002000028F2D0012003F0EAFD04
:102B500013E000207F490860FFF796FB054606E07A
:102B6000FFF792FB401B022801D90320F6E67748C5
:102B7000406A00F002000028F2D1207800F0040042
:102B8000042873D100277148C06900F0805070B9E3
:102B900000BF6E48C06940F080506C49C86108466B
:102BA000C06900F08050009000BF00BF01276A4854
:102BB000006800F48070B0B96748006840F4807025
:102BC00065490860FFF760FB054606E0FFF75CFB20
:102BD000401B642801D90320C0E65F48006800F468
:102BE00080700028F2D000BFE068012806D1574865
:102BF000006A40F001005549086227E0E06858B9D2
:102C00005248006A20F00100504908620846006AF4
:102C100020F00400086219E0E06805280BD14B4859
:102C2000006A40F00400494908620846006A40F022
:102C3000010008620AE04548006A20F001004349AB
:102C400008620846006A20F00400086200BFE068DD
:102C5000A0B1FFF719FB054609E0FFF715FB401B84
:102C600041F28831884202D9032077E622E03748D2
:102C7000006A00F002000028EFD012E0FFF704FB2A
:102C8000054608E0FFF700FB401B41F2883188420F
:102C900001D9032062E62D48006A00F002000028F6
:102CA000F0D1012F05D12948C06920F08050274973
:102CB000C86100BFE069C8B32448406800F00C0058
:102CC000082860D0E069022848D100202049086621
:102CD000FFF7DAFA054606E0FFF7D6FA401B0228AE
:102CE00001D903203AE61948006800F00070002876
:102CF000F2D1206AB0F5803F07D11448406820F433
:102D00000030A168084311494860D4E9080108432C
:102D10000E49496821F4741108430C4948600120A8
:102D20000B490866FFF7B0FA054607E03DE0FFF7FC
:102D3000ABFA401B022801D903200FE603480068C4
:102D400000F000700028F2D02FE0000000100240D8
:102D500000004242800442420070004000201449BA
:102D60000866FFF791FA054606E0FFF78DFA401B6B
:102D7000022801D90320F1E50E48006800F0007038
:102D80000028F2D111E0E069012800D1E6E5094808
:102D9000466806F48031206A814204D106F470113D
:102DA000606A814201D00120D8E50020D6E500000C
:102DB000000042420010024070B504462546681EDD
:102DC000B0F1807F01D301200FE0681E4FF0E021B9
:102DD00048610F214FF0FF3006F024F900204FF03A
:102DE000E021886107200861002070BD70477047AE
:102DF00010B50346002200BF93F83C00012801D122
:102E0000022010BD012083F83C0000BF22F0FF002B
:102E1000CC6840EA040222F440708C6840EA040264
:102E200022F480604C6840EA040222F400600C68DE
:102E300040EA040222F480500C6940EA040222F4C1
:102E400000504C6940EA040222F48040CC6940EA18
:102E500004021868426400BF002083F83C0000BFF1
:102E600000BFCEE730B502460B4600BF92F83C00EB
:102E7000012801D1022030BD012082F83C0000BFB2
:102E8000022082F83D00106844681068816824F0D0
:102E900070041868044310684460144D1068A84218
:102EA00013D0134D1068A8420FD01068B0F1804FB6
:102EB0000BD0104D1068A84207D00F4D1068A842E3
:102EC00003D00E4D1068A84205D121F0800158684A
:102ED000014310688160012082F83D0000BF00209E
:102EE00082F83C0000BF00BFC5E70000002C014095
:102EF000003401400004004000080040000C004085
:102F000010B504460CB9012010BD94F83D0028B955
:102F1000002084F83C00204600F026F8022084F8C7
:102F20003D00211D206805F009FC012084F84600C1
:102F300000BF84F83E0001213F200155402001558B
:102F40004120015500BF00BF012084F8420043200A
:102F50000155442001554520015500BF012084F84A
:102F60003D000020D0E7000010B586B004460020E8
:102F7000029003900490059026492068884216D15B
:102F800000BF2548C06940F008002349C8610846D1
:102F9000C06900F00800019000BF00BF01220221BB
:102FA0003220FFF71DFA3220FFF70AFA2FE02068DF
:102FB000B0F1804F2BD100BF1748C06940F001002D
:102FC0001549C8610846C06900F00100019000BFC2
:102FD00000BF00BF0846806940F0040088610846D1
:102FE000806900F00400019000BF00BF0C20029037
:102FF00000200390049002A90848FEF795FF0222E2
:1030000001211C20FFF7ECF91C20FFF7D9F906B0CD
:1030100010BD0000000C00400010024000080140FC
:10302000014691F83D00012801D00120704702209F
:1030300081F83D000868C06840F001000B68D86066
:10304000164B0868984213D0154B086898420FD069
:103050000868B0F1804F0BD0124B0868984207D037
:10306000114B0868984203D0104B086898420CD165
:103070000868806800F00702062A0CD0086800681B
:1030800040F001000B68186005E00868006840F037
:1030900001000B6818600020C8E70000002C014008
:1030A000003401400004004000080040000C0040D3
:1030B0002DE9F04104460D4600BF94F83C0001287C
:1030C00002D10220BDE8F081012084F83C0000BF5D
:1030D000022084F83D002068866826F0770626F4F2
:1030E0007F46206886602868502833D00CDC202872
:1030F00050D004DC00284BD0102851D149E03028B2
:1031000049D040284CD139E060282DD0702807D014
:10311000B0F5805F03D0B0F5005F41D10DE040E035
:10312000D5E902136A68206805F067FB20688668A5
:1031300046F077062068866033E0D5E902136A68B6
:10314000206805F05AFB2068806840F480402168C0
:10315000886026E0EA686968206805F03FFC502135
:10316000206805F055FB1CE0EA686968206805F0F6
:1031700087FC6021206805F04BFB12E0EA68696873
:10318000206805F02BFC4021206805F041FB08E099
:1031900000BF00BF00BF2968206805F039FB00E0D0
:1031A00000BF00BF012084F83D0000BF002084F86C
:1031B0003C0000BF00BF85E72DE9F04104460D4605
:1031C00014B90120BDE8F08194F83D0028B9002031
:1031D00084F83C00204600F051F8022084F83D00BD
:1031E0002068806844F20701884321688860211DB7
:1031F000206805F0A3FA2068D0F808802068866966
:103200002068076A286840EA080840F203308643CD
:10321000A969A86840EA0120064340F60C408643AD
:103220004FF2F0008643E969E86840EA012006436E
:1032300028690001296A40EA0130064327F0220785
:103240006969686840EA011007432068C0F808808F
:103250002068866120680762012084F8460084F8AF
:103260003E0001213F200155012084F84200432007
:103270000155012084F83D000020A3E710B586B079
:103280000446002002900390049005903149206884
:1032900088422CD100BF3048C06940F004002E495C
:1032A000C8610846C06900F00400019000BF00BF7B
:1032B00000BF0846806940F00800886108468069C0
:1032C00000F00800019000BF00BFC0200290002065
:1032D0000390049002A92148FEF726FE0322012153
:1032E0001E20FFF77DF81E20FFF76AF82FE01C492B
:1032F000206888422BD100BF1748806940F40050F5
:10330000154988610846806900F40050019000BFAB
:1033100000BF00BF0846806940F010008861084681
:10332000806900F01000019000BF00BFC020029033
:1033300000200390049002A90A48FEF7F5FD03223D
:1033400001212C20FFF74CF82C20FFF739F806B0AC
:1033500010BD00000008004000100240000C0140B9
:1033600000340140001001402DE9F04304460D46B1
:1033700094F83E603F20075D94F84280432010F8A7
:1033800004906DB9012E02D1B8F1010F02D00120D5
:10339000BDE8F083022084F83E0084F8420025E076
:1033A000042D0CD1012F02D1B9F1010F01D0012060
:1033B000EEE702213F2001554320015516E0012E82
:1033C00007D1012F05D1B8F1010F02D1B9F1010FD9
:1033D00001D00120DCE7022084F83E0002213F20DA
:1033E0000155022084F842004320015515B1042DF7
:1033F0000CD105E001220021206805F0EDF910E074
:1034000001220421206805F0E7F90AE001220021E9
:10341000206805F0E1F901220421206805F0DCF9BB
:1034200000BF00BF2068006840F00100216808600C
:103430000020ADE710B504466E480068B0F5C86FCF
:103440000CDD6D48007848B901206B4908700020F8
:103450006A4908706A4908706A4908706A48844273
:103460007ED1207F04285FD168484078D8B90821F0
:10347000654800F02FFD6549486000BF624800685C
:10348000006A20F400706049096808625E480068BC
:10349000006A40F400705C490968086200BF0120BE
:1034A0005A49487040E00821574800F013FD574939
:1034B0004968401A4F4908600968554A1268881AD5
:1034C000002801DB014600E04142B1F5FA7F11DD41
:1034D00050480078401C4F4908700846007805287D
:1034E00004DC4B4800684349086006E00020494975
:1034F000087002E00020474908703E4800684449CF
:10350000086000BF40480068006A20F400703E492F
:10351000096808623C480068006A3B49096808621B
:1035200000BF002039494870207F082861D13A48FF
:103530004078E8B90C21344800F0CCFC36494860AA
:1035400000BF31480068006A20F400502E49096825
:1035500008622D480068006A40F400502A4900E0E3
:1035600047E00968086200BF01202B49487040E02D
:103570000C21254800F0AEFC27494968401A27492C
:1035800008600968264A1268881A002801DB01468B
:1035900000E04142B1F5FA7F11DD22480078401C7D
:1035A0002049087008460078052804DC1C4800689B
:1035B0001A49086006E000201A49087002E000205D
:1035C00018490870154800681549086000BF0E4882
:1035D0000068006A20F400500B49096808620A4834
:1035E0000068006A08490968086200BF00200A49AB
:1035F000487010BDEC0000200A00002008000020E8
:10360000070000200900002058040020780C00204A
:10361000F4000020020100206C0C0020E8000020D3
:10362000F0000020030100202DE9F04104460D4682
:10363000164600BF94F83C00012802D10220BDE8E4
:10364000F081012084F83C0000BF96B9EB68D5E911
:103650000012206805F0D6F92068806920F00C007F
:103660002168886120688069A968084321688861A9
:103670003DE0042E13D1EB68D5E90012206805F077
:1036800013FA2068806920F440602168886120680E
:103690008069A96840EA01202168886127E0082E36
:1036A00012D1EB68D5E90012206805F01AFA2068FB
:1036B000C06920F00C002168C8612068C069A96851
:1036C00008432168C86112E0EB68D5E90012206860
:1036D00005F023FA2068C06920F440602168C861C1
:1036E0002068C069A96840EA01202168C86100BF5C
:1036F000002084F83C0000BF00BFA0E710B50446DE
:103700000CB9012010BD94F83D0028B9002084F8C0
:103710003C00204600F025F8022084F83D00211DE1
:10372000206805F00BF8012084F8460000BF84F8FB
:103730003E0001213F200155402001554120015507
:1037400000BF00BF012084F84200432001554420FF
:1037500001554520015500BF012084F83D0000209F
:10376000D0E770472DE9F04104460D4615B994F8AD
:103770003E000BE0042D02D13F20005D06E0082D45
:1037800002D14020005D01E04120005D074615B9EF
:1037900094F842000BE0042D02D14320005D06E0C6
:1037A000082D02D14420005D01E04520005D8046E7
:1037B000012F02D1B8F1010F02D00120BDE8F08144
:1037C0001DB9022084F83E000EE0042D03D1022131
:1037D0003F20015508E0082D03D10221402001556A
:1037E00002E00221412001551DB9022084F8420067
:1037F0000EE0042D03D102214320015508E0082DDD
:1038000003D102214420015502E002214520015547
:1038100035B1042D0BD0082D10D00C2D1CD114E087
:103820002068C06840F002002168C86015E0206888
:10383000C06840F004002168C8600EE02068C068DD
:1038400040F008002168C86007E02068C06840F0C8
:1038500010002168C86000E000BF00BF01222946B7
:10386000206804F0B9FF16492068884213D0154932
:10387000206888420FD02068B0F1804F0BD01249E9
:103880002068884207D011492068884203D0104937
:10389000206888420CD12068806800F00706062E58
:1038A0000CD02068006840F001002168086005E045
:1038B0002068006840F001002168086000207DE772
:1038C000002C01400034014000040040000800408A
:1038D000000C004010B5044620680069C0F34000A9
:1038E000D8B12068C068C0F34000B0B16FF00200EA
:1038F00021680861012020772068806900F00300BA
:1039000018B12046FFF796FD05E0204600F012F9B9
:10391000204600F0EDF90020207720680069C0F310
:103920008000D8B12068C068C0F38000B0B16FF0EB
:10393000040021680861022020772068806900F473
:10394000407018B12046FFF775FD05E0204600F0F5
:10395000F1F8204600F0CCF90020207720680069BB
:10396000C0F3C000D8B12068C068C0F3C000B0B1D7
:103970006FF0080021680861042020772068C06982
:1039800000F0030018B12046FFF754FD05E0204683
:1039900000F0D0F8204600F0ABF900202077206836
:1039A0000069C0F30010D8B12068C068C0F30010EF
:1039B000B0B16FF0100021680861082020772068FE
:1039C000C06900F4407018B12046FFF733FD05E0F0
:1039D000204600F0AFF8204600F08AF9002020775A
:1039E0002068006900F0010058B12068C06800F04C
:1039F000010030B16FF0010021680861204600F03D
:103A0000F3F920680069C0F3C01058B12068C0689D
:103A1000C0F3C01030B16FF080002168086120460B
:103A2000FFF7E4F920680069C0F3801058B12068FE
:103A3000C068C0F3801030B16FF0400021680861A9
:103A4000204600F060FA20680069C0F3401058B1C9
:103A50002068C068C0F3401030B16FF020002168CA
:103A600008612046FFF7C3F910BD000010B586B00D
:103A70000446002002900390049005902849206895
:103A8000884218D100BF2748806940F004002549CA
:103A900088610846806900F00400019000BF00BF03
:103AA00088150290022003900320059002A91E4869
:103AB000FEF73AFA32E01D49206888422ED100BF55
:103AC0001848806940F004001649886108468069FA
:103AD00000F00400019000BF00BF00BF08468069ED
:103AE00040F0080088610846806900F008000190F5
:103AF00000BF00BFC0200290022003900320059069
:103B000002A90948FEF710FA032002900220039050
:103B10000320059002A90648FEF706FA06B010BD7C
:103B2000002C014000100240000801400004004049
:103B3000000C0140704770B504460D46164600BFA4
:103B400094F83C00012801D1022070BD012084F8C6
:103B50003C0000BF36B1042E1BD0082E31D00C2EF5
:103B60005ED145E02946206804F05CFE206880694B
:103B700040F00800216888612068806920F0040016
:103B80002168886120688069296908432168886103
:103B900047E02946206804F07DFE2068806940F4F3
:103BA0000060216888612068806920F48060216855
:103BB000886120688069296940EA0120216888615C
:103BC0002FE02946206804F0A3FE2068C06940F079
:103BD00008002168C8612068C06920F004002168DD
:103BE000C8612068C069296908432168C86118E074
:103BF0002946206804F0C8FE2068C06940F40060CF
:103C00002168C8612068C06920F480602168C861AB
:103C10002068C069296940EA01202168C86100E084
:103C200000BF00BF00BF002084F83C0000BF00BF01
:103C30008BE710B504460CB9012010BD94F83D0087
:103C400028B9002084F83C00204600F025F8022026
:103C500084F83D00211D206804F070FD012084F8E7
:103C6000460000BF84F83E0001213F20015540205E
:103C700001554120015500BF00BF012084F84200DA
:103C800043200155442001554520015500BF012026
:103C900084F83D000020D0E708B5124A016891423F
:103CA0000DD100BF1049896941F400610E4A91614C
:103CB0001146896901F40061009100BF11E00B4ACF
:103CC000016891420DD100BF0749C96941F0020165
:103CD000054AD1611146C96901F00201009100BF96
:103CE00000BF08BD002C014000100240000400404D
:103CF0007047000070B504460D4615B994F83E00B3
:103D00000BE0042D02D13F20005D06E0082D02D11A
:103D10004020005D01E04120005D012801D001202C
:103D200070BD1DB9022084F83E000EE0042D03D1C1
:103D300002213F20015508E0082D03D10221402037
:103D4000015502E002214120015501222946206847
:103D500004F042FD1F492068884203D01E492068B4
:103D6000884201D1012000E0002028B12068406C89
:103D700040F400402168486416492068884213D006
:103D80001549206888420FD02068B0F1804F0BD0D1
:103D900012492068884207D011492068884203D020
:103DA0001049206888420CD12068806800F007061E
:103DB000062E0CD02068006840F0010021680860E1
:103DC00005E02068006840F00100216808600020DC
:103DD000A6E70000002C0140003401400004004030
:103DE00000080040000C00402DE9F04104462F4837
:103DF000844258D1FDF738FB2D480078A8B12D48F2
:103E00000078401CC0B22B4908700A2804D1002059
:103E100008702749087008E0264800780A2804DD61
:103E20000020244908702249087023480078092896
:103E300002D104F0AFF811E01F48007860B91F48C4
:103E40000078012802D1FCF797FD07E000201C490B
:103E500008601C49086001E001F046FC194801684F
:103E600017480068FDF74EF904F076FE10B9FDF72B
:103E700007F908E00020144948601449486040F2FE
:103E8000DC50134908601149486808F0C3F9074637
:103E90000D48406880F00046304608F0BBF9054602
:103EA000394602F0B5FDBDE8F08100003005002084
:103EB00001000020000000205C000020080000201D
:103EC0004400002048000020B80A0020C80A002052
:103ED000600000200246002031B1042907D00829E3
:103EE00008D00C290CD108E01368586B09E013685E
:103EF000986B06E01368D86B03E01368186C00E059
:103F000000BF00BF70477047704770472DE9F84FFA
:103F10000446206805682068C668206847694FF035
:103F20000009CA4605F00F09B9F1000F0AD105F0E2
:103F3000200038B106F0200020B1204604F08FFEAA
:103F4000BDE8F88FB9F1000F71D007F0010018B982
:103F500006F4907000286AD005F0010030B106F434
:103F6000807018B1206C40F00100206405F004005E
:103F700030B107F0010018B1206C40F0020020645D
:103F800005F0020030B107F0010018B1206C40F0DC
:103F90000400206405F0080048B106F0200010B9C4
:103FA00007F0010018B1206C40F008002064206C7C
:103FB00068B305F0200028B106F0200010B12046BB
:103FC00004F04DFE20684069C0F3801A206C00F0B8
:103FD000080010B9BAF1000F22D0204604F014FEF8
:103FE0002068406900F04000B0B12068406920F0CE
:103FF000400021684861A06B50B15648A16B4863EE
:10400000A06BFDF7ADFE10B1A06B416B88470CE0D3
:104010002046FFF77AFF08E02046FFF776FF04E02E
:104020002046FFF772FF0020206489E7FFE7206B3E
:10403000012878D105F01000002874D006F0100097
:10404000002870D000BF0020009020680068009019
:1040500020684068009000BF00BF2068406900F001
:104060004000C0B3A06B006840681FFA80F8B8F148
:10407000000F2FD0A08D40452CDDA4F82E80A06B22
:10408000806920281FD02068C06820F480702168D3
:10409000C8602068406920F00100216848612068FC
:1040A000406920F0400021684861202084F83E00EB
:1040B000002020632068C06820F010002168C860DC
:1040C000A06BFDF721FEA08DE28D801A81B2204603
:1040D000FFF71AFF34E7FFE7A08DE18D401A1FFAC2
:1040E00080F8E08DE8B1B8F1000F1AD02068C06800
:1040F00020F490702168C8602068406920F00100B9
:1041000021684861202084F83E0000202063206858
:10411000C06820F010002168C86041462046FFF7C3
:10412000F3FE0DE7FFE705F0800030B106F08000F8
:1041300018B1204604F0A7FE02E705F0400030B1B8
:1041400006F0400018B1204604F079FDF8E600BF03
:10415000F6E60000F58B000810B504460CB9012006
:1041600010BDA06900B100E000BF94F83D0028B97F
:10417000002084F83C00204600F028F8242084F831
:104180003D002068C06820F400502168C8602046C7
:1041900004F0D8FD2068006920F49040216808618F
:1041A0002068406920F02A00216848612068C068C2
:1041B00040F400502168C86000202064202084F86A
:1041C0003D0084F83E000020CAE7000010B586B02C
:1041D00004460020029003900490059060492068F6
:1041E000884243D100BF5F48C06940F480105D49F8
:1041F000C8610846C06900F48010019000BF00BF8C
:1042000000BF0846806940F0100088610846806958
:1042100000F01000019000BF00BF00BF0846806999
:1042200040F0200088610846806900F0200001907D
:1042300000BF00BF88140290022003900320059065
:1042400002A94948FDF770FE042002900020039067
:10425000049002A94548FDF767FE0122114635206A
:10426000FEF7BEF83520FEF7ABF876E0404920684F
:10427000884237D100BF3B48806940F480403949CB
:1042800088610846806900F48040019000BF00BF4B
:1042900000BF0846806940F00400886108468069D4
:1042A00000F00400019000BF00BF481502900220FA
:1042B00003900320059002A92E48FDF735FE4FF428
:1042C0008060029000200390049002A92948FDF725
:1042D0002BFE012211462520FEF782F82520FEF74D
:1042E0006FF83AE024492068884236D100BF1D4863
:1042F000C06940F480201B49C8610846C06900F4C9
:104300008020019000BF00BF00BF0846806940F0D8
:10431000080088610846806900F00800019000BF2D
:1043200000BF08150290022003900320059002A907
:104330001248FDF7F9FD4FF4006002900020039051
:10434000049002A90D48FDF7EFFD01221146272038
:10435000FEF746F82720FEF733F806B010BD000040
:1043600000500040001002400010014000140140C5
:10437000003801400008014000480040000C0140A6
:1043800070B504460D46164694F83E00202816D116
:1043900005B10EB9012070BD00BF94F83C000128A2
:1043A00001D10220F7E7012084F83C0000BF002083
:1043B000206332462946204604F042FDEBE7022006
:1043C000E9E700002DE9F04786B08246FE488245C5
:1043D00058D1FE4804780120FD4908700020FD49AD
:1043E0000870FD490870FD490870FD48FD490978CD
:1043F00044547B2C03D0FB480078002805DDF948A5
:104400000078401CF749087002E00020F549087068
:10441000F44800780B282FD10020F2490870F048AA
:10442000807A7D2828D100210920FCF77BFBEC490C
:10443000497A884220D1EA4A1179D07804F0BEFD49
:10444000E9490860E64A117AD07904F0B7FD0546DB
:10445000E6480078012807D12946E348006804F0BF
:1044600055FDE349086006E0DD4A117AD07904F091
:10447000A5FDDF49086000BF0122D449D248FFF7FB
:104480007FFF00BFDB4882457ED1DB480078DB49F7
:1044900008600878FCF758F9B0B10020D8490860E6
:1044A000D8490870D8490870D8490870D8490860B8
:1044B0003221D848FBF76EFF0122CF49CD48FFF7E4
:1044C0005FFF06B0BDE8F087C248007898B9CB48D6
:1044D000006841280BD1CA480068401CC8490860E0
:1044E000052803D100200860FCF7CAF81EE100206F
:1044F000C34908601AE1C1480068412809DBBF4888
:104500000068482805DCBD4800784038C24908707A
:104510007FE0BA4800685A2803D10020BE490870DD
:1045200077E0B64800680A2804DCB4480078BA4945
:1045300008706EE0B148006859282BD1B749B848D7
:10454000006808F00BF8B64904460860B54907F062
:10455000C9FE02D2B348B2490860A44800780128D5
:1045600057D0B148006807F0C5FC0646AF4AB04BCB
:1045700007F0D6FB044606F095FEAB49804608607E
:10458000AC4907F0AFFE00E0D6E042D2A948A64908
:1045900008603EE09948006858282BD19F49A04800
:1045A000006807F0D3FC9E4904460860A24907F062
:1045B00099FF02D2A0489A4908608C4800780128E7
:1045C00027D09948006807F095FC0646974A984B13
:1045D00006F09AFE044606F065FE934980460860A0
:1045E0004FF07E5107F07EFF13D24FF07E508E4980
:1045F00008600EE0814800687B2803D101208149D2
:10460000087006E07D4800687D2802D102207D49BF
:1046100008707C48007801280AD1784800787D49E4
:10462000794A1278885478480078401C7649087096
:1046300074480078022879D17648C078502803D190
:1046400001207E49087064E072484078232860D0D9
:104650006D4800786D49087035E06B4909786B4A00
:104660001278881A07F0CFF8804642460B460020A1
:10467000734906F0B3F806460F4664490978491EA7
:10468000644A515CA1F1300007F0BDF832463B4668
:10469000CDE9000107F01EF904460D465C480068AC
:1046A00007F028FC22462B46CDE9020106F02CFE3D
:1046B000CDE9040106F0F6FD55490860534800783D
:1046C000401E52490870514800780428C5DA514804
:1046D0004078303809281AD2DFE800F0050A1213B2
:1046E0001415161718004A4800684D4908600FE075
:1046F00054494748006807F097FC5349086007E0B1
:1047000006E005E004E003E002E001E000E000BFB5
:1047100000BF00203B4908703B4908703B490870C6
:104720003B49086032213B48FBF734FE0122324905
:104730003048FFF725FED3E144488245FBD1444889
:1047400004784448007805283CDD424800782A284F
:1047500039DA40480078032190FBF1F201FB1200A6
:10476000A0B93D480078C0EBC0013C480844048033
:1047700038480078401C3749087039480078604054
:10478000C0B23849085C36490870A3E13148007866
:10479000032190FBF1F201FB1200012872D12E4897
:1047A0000078C0EBC0012D480844008800EB0420CD
:1047B00081B229480078C0EBC0022848104401802B
:1047C000244851E0FAE077E004060020CC00002005
:1047D0000900002008000020070000200A00002037
:1047E000E80B0020D1000020440000200B00002036
:1047F0004800002048060020CD000020D8000020FE
:10480000D4000020DC000020DD000020DE000020BD
:10481000E0000020080C0020D00000200000C8416B
:104820005400002000005243580000209A999999A2
:104830009999B93F7CD9203E00004844CF00002020
:104840000000244000007A4468000020C0050020D9
:10485000CE000020E4000020E6000020A20D002091
:10486000E500002016DC00080078401C9D49087017
:104870009D4800786040C0B29C49085C9A49087025
:1048800028E1FFE79A480078C0EBC0019948084446
:10489000847097480078401C9549087091480078CA
:1048A000401C90490870904800786040C0B28F4921
:1048B000085C8D4908700DE18A4800782A3805287F
:1048C0007AD2DFE800F003152D3F57008948801F9A
:1048D000A0F85A4083480078401C824908708248FA
:1048E00000786040C0B28149085C7F49087064E08C
:1048F0008048801FB0F85A0000EB04207D49891FD2
:10490000A1F85A0077480078401C7649087076482C
:1049100000786040C0B27549085C734908704CE08B
:104920007448801FA0F85C406E480078401C6D49B8
:1049300008706D4800786040C0B26C49085C6A49F4
:1049400008703AE06B48801FB0F85C0000EB042070
:104950006849891FA1F85C0062480078401C6149E1
:104960000870614800786040C0B26049085C5E49E8
:10497000087022E05F48801F80F85E4090F85E007B
:104980005949097888420AD105F0F2F95A48008855
:10499000401C5949088001205849087004E05F21F3
:1049A0005448801FFBF7D4FC00204F4908704D4944
:1049B00008704F49087000BF00BF8BE0494800787D
:1049C00006286ED2DFE800F0031C35465C6E542CDE
:1049D00010D14848801F047042480078401C41496B
:1049E0000870414800786040C0B24049085C3E49C8
:1049F000087004E000203B4908703B49087068E0FB
:104A00002C2C10D13B48801F447036480078401C45
:104A100034490870344800786040C0B23349085CBB
:104A20003149087004E000202E4908702E490870B2
:104A30004FE03048801F44802A480078401C2949B4
:104A40000870294800786040C0B22849085C2649AF
:104A500008703EE02748801F408800EB042025496D
:104A6000891F48801F480078401C1E4908701E4856
:104A700000786040C0B21D49085C1B49087028E0FE
:104A80001C48801F848017480078401C1549087016
:104A9000154800786040C0B21449085C124908709B
:104AA00017E015E01348801F808800EB04201149AF
:104AB000891F88800B480078401C0A4908700A4802
:104AC00000786040C0B20949085C0749087000E0FE
:104AD00000BF00BF01220A490A48FFF751FC00BF8E
:104AE00000BFEEE4E4000020E500002016DC000832
:104AF000E6000020A20D0020C8000020CA0000200F
:104B0000CE000020C0050020704700BFFEE770B552
:104B100005460E46002400F0F9F8284600F0C4F8D7
:104B2000641C00F04BF9304600F0BEF8641C00F045
:104B300045F900F0EBF8691CC8B200F0B5F8641C48
:104B400000F03CF9002000F077F8044600F012F97C
:104B5000204670BD10B500200E4908600E48006860
:104B600020F070400C4908600846006840F0405052
:104B7000086000200949C1F8BC01012003F052FD82
:104B800001200449086003F04DFD00200349C1F8ED
:104B9000B80110BDB8812142040C014000802142BF
:104BA00000B585B00020019002900390049000BFF2
:104BB0000C48806940F008000A498861084680690D
:104BC00000F00800009000BF00BF4FF4404001908B
:104BD000012002900320049001A90348FDF7A4F9E5
:104BE00005B000BD00100240000C014010B50020CF
:104BF0000E4908600E48006820F070400C490860BB
:104C00000846006840F04050086001200949C1F89A
:104C1000BC0103F007FD01200449086003F002FD18
:104C200000200449C1F8B80110BD0000B88121423C
:104C3000040C01400080214270B50546002417484D
:104C4000006820F07040154908600846006840F090
:104C500000400860002616E000201149086002208C
:104C600003F0E0FC01200F49C1F8B8016006040E12
:104C70000B487C38006808B1601CC4B2022003F005
:104C8000D1FC701CC6B2082EE6DB15B1FFF762FF3F
:104C900001E0FFF7ABFF204670BD0000040C0140AF
:104CA000B88121420080214270B504461448006852
:104CB00020F07040124908600846006840F04050FB
:104CC000086000200F490860002516E0E0090D4942
:104CD000091D08606006040E012003F0A3FC0120FA
:104CE0000949C1F8B80103F09DFC0020054908609E
:104CF000012003F097FC681CC5B2082DE6DB70BDEF
:104D0000040C0140B88121420080214210B51648B0
:104D1000006820F07040144908600846006840F0C0
:104D2000405008600120114908601148D0F83C014A
:104D300008B9002010BD01200C49091F086003F0CC
:104D400071FC00200A49C1F8BC010848803800689D
:104D500008B10020EEE7012003F064FC00200349C5
:104D6000091F08600120E5E7040C0140BC812142D5
:104D70000080214210B50E48006820F070400C49B8
:104D800008600846006840F040500860002009496B
:104D900008600949C1F8BC01012003F043FC01206F
:104DA000044908600449C1F8BC0103F03BFC10BD94
:104DB000040C0140B88121420080214210B500243A
:104DC0001548006820F070401349086008460068E4
:104DD00040F00040086001201049086003F022FC08
:104DE00001200F49C1F8B80103F01CFC0AE0601C67
:104DF000C4B2322C03DDFFF7BDFF002010BD01203F
:104E000003F010FC0548803800680028EFD1034902
:104E1000091F08600120F1E7040C0140BC81214218
:104E20000080214270B505460E461446314628469C
:104E3000FFF76DFE2070012070BDF8B506460F46E5
:104E400014461D466A4639463046FFF7EBFF2DB142
:104E50000120A0409DF80010084305E00120A0407B
:104E60009DF8001021EA0000C0B200909DF80020DB
:104E70003946304600F036F8F8BD2DE9F8430746CC
:104E8000884614461D46089E6A4641463846FFF746
:104E9000C9FF28B3601CFF2101FA00F0C4F108012A
:104EA0002944491EFF220A41104300F0FF09C5F1C1
:104EB000080006FA00F0C6B2C4F1070006419DF8EA
:104EC000000000EA090000909DF8000030430090C7
:104ED0009DF800204146384600F004F8BDE8F8830C
:104EE0000020FBE737B504460D4602AB01222946F8
:104EF000204600F001F83EBD2DE9F04180460D4608
:104F000016461F460024FFF701FF4046FFF7CCFE80
:104F1000FFF754FF2846FFF7C7FEFFF74FFF00BF1C
:104F200006E0385DFFF7C0FEFFF748FF601CC4B223
:104F3000B442F6DBFFF71EFF0120BDE8F081000060
:104F40002DE9F04704460D462946204607F0FBFAB6
:104F500015490860084601681448006807F0F6F92A
:104F60008046134801681048006807F0F7FA814648
:104F700010480168484607F0E9F90746414606F03F
:104F8000E5FF06460C480168304606F0DFFF0A4997
:104F9000086005480068064908600748006807F08F
:104FA00039F9BDE8F0870000040200202401002048
:104FB0000C02002020010020080200202DE9F0470B
:104FC00004460D462946204607F0BDFA15490860FB
:104FD000084601681448006807F0B8F9804613488D
:104FE00001681048006807F0B9FA81461048016866
:104FF000484607F0ABF90746414606F0A7FF0646CC
:105000000C480168304606F0A1FF0A4908600548CF
:105010000068064908600748006807F0FBF8BDE82B
:10502000F087000010020020240100201802002058
:1050300020010020140200202DE9F05F05460C46F7
:10504000894E8A4F4FF07C584FF00109884801681B
:10505000204607F083FA834686480168584607F0E1
:1050600075F9824684480168504606F06FFF824910
:10507000086082484168304607F070FA82467F48EF
:105080008168504607F06AFA7D4908607B48C0682D
:1050900080F0004048607948C06880F00040886037
:1050A0000846C76008687349096807F04FF98246E7
:1050B00072480168504606F049FF7049086070491F
:1050C00048686C49096807F041F982466B484168B5
:1050D000504606F03BFF6949486069498868654960
:1050E000096807F033F9824664488168504606F043
:1050F0002DFF624988606249C8685E49096807F007
:1051000025F982465D48C168504606F01FFF5B499D
:10511000C86059480168284607F020FA59490860D4
:10512000484607F0CBF8824654480168504607F0DD
:105130000DF955490860484607F0C0F882464F48C7
:105140008168504607F002F950490860484607F068
:10515000B5F883464C480168584607F0F7F8824690
:10516000414606F0F3FE4A49086008460168464891
:10517000006806F059FF4749086045480168434800
:10518000006806F051FF444908603F480068434901
:105190000860484607F092F8824638484168504611
:1051A00007F0D4F83E4908603C4801683948006877
:1051B00007F0CCF8824631480168504607F0C3F941
:1051C0002E490860364801683248006807F0BEF88A
:1051D00082462A484168504607F0B5F92749486099
:1051E0002E4801682C48006807F0B0F88246234832
:1051F0008168504607F0A7F920498860284801686F
:105200002548006807F0A2F882461C48C16850464D
:1052100007F099F91949C8601A4801681D480068E3
:1052200007F094F8824614480168504606F08EFE56
:1052300011490860134801681748006807F086F8AC
:1052400082460B480168504606F080FE0849086017
:1052500008460168204607F081F9124908600648AF
:105260000068BDE8F09F00006F12833AA69B443BA4
:10527000380300202C030020340300205C030020AE
:10528000603A00203C03002040030020440300203B
:10529000480300204C03002050030020540300204A
:1052A00058030020300300202DE9F05F05460C462E
:1052B000894E8A4F4FF07C584FF0010988480168A9
:1052C000204607F04BF9834686480168584607F0A8
:1052D0003DF8824684480168504606F037FE824910
:1052E000086082484168304607F038F982467F48B6
:1052F0008168504607F032F97D4908607B48C068F4
:1053000080F0004048607948C06880F000408860C4
:105310000846C76008687349096807F017F88246AD
:1053200072480168504606F011FE704908607049E5
:1053300048686C49096807F009F882466B4841687B
:10534000504606F003FE6949486069498868654926
:10535000096806F0FBFF824664488168504606F003
:10536000F5FD624988606249C8685E49096806F0CF
:10537000EDFF82465D48C168504606F0E7FD5B4997
:10538000C86059480168284607F0E8F8594908609C
:10539000484606F093FF824654480168504606F09E
:1053A000D5FF55490860484606F088FF82464F48B9
:1053B0008168504606F0CAFF50490860484606F02A
:1053C0007DFF83464C480168584606F0BFFF824681
:1053D000414606F0BBFD4A49086008460168464858
:1053E000006806F021FE47490860454801684348C7
:1053F000006806F019FE444908603F4800684349C8
:105400000860484606F05AFF8246384841685046D0
:1054100006F09CFF3E4908603C4801683948006836
:1054200006F094FF824631480168504607F08BF839
:105430002E490860364801683248006806F086FF49
:1054400082462A484168504607F07DF8274948605F
:105450002E4801682C48006806F078FF82462348F1
:105460008168504607F06FF8204988602848016835
:105470002548006806F06AFF82461C48C16850460D
:1054800007F061F81949C8601A4801681D480068AA
:1054900006F05CFF824614480168504606F056FD4F
:1054A00011490860134801681748006806F04EFF6C
:1054B00082460B480168504606F048FD08490860DE
:1054C00008460168204607F049F812490860064876
:1054D0000068BDE8F09F00006F12833AA69B443B32
:1054E000780300202C030020740300209C0300207C
:1054F000703A00207C0300208003002084030020F9
:10550000880300208C0300209003002094030020D7
:10551000980300207003002010B504462CB9012226
:1055200004210948FCF7AAFE0DE008480068401C69
:1055300006490860A04206DB04210348FCF794FEFC
:1055400000200249086010BD00100140400000200A
:105550002DE9F04F87B081468A46002006904FF62D
:10556000FF76059043480768B7F5487F01DD4FF4A3
:10557000487700241AE0C4EBC4003F49084405887A
:10558000C4EBC4013C4A1144D1F8030000F07AF89E
:1055900080462946404600F095F830B1B54204DA1D
:1055A0002E46CDF8148001200690641CBC42E2DB3C
:1055B0000698002859D0002004900390002500246C
:1055C00035E0C4EBC4002C490844B0F80080C4EBBB
:1055D000C401294A1144D1F8030000F053F80290A5
:1055E0000599029806F0BAFF019000F04BF8834647
:1055F0004146029800F066F8C0B106F1640080B23E
:10560000404513DB1D49584606F06CFF0ED21C497D
:10561000584606F067FE09D25946049806F096FCF3
:105620000490039840440390681C85B2641CBC42FB
:10563000C7DB002D13DD284606F040FE0146029030
:10564000049806F0F1FC8346059906F07FFC80463D
:1056500000F018F805900398B0FBF5F086B20598B5
:10566000C9F80000AAF8006000BF069807B0BDE8BE
:10567000F08F00001C000020FB0D0020000070C116
:105680000000704110B5044604E00B49204606F0C6
:1056900065FF04460949204606F024FFF5D304E0DF
:1056A0000549204606F052FC04460549204606F00E
:1056B00019FEF5D3204610BD0000B443000034436A
:1056C000000034C370B505460C462846FFF7DAFFE4
:1056D0000546B4F5827F02DBB4F57A6F01DD002068
:1056E00070BD0120FCE700002DE9F0410220FBF72E
:1056F00095FB7248B0F9000006F0C8FD804670497D
:1057000006F092FC07466F4906F020FE06466E48FA
:105710000168304606F01AFC6B49086008460068CC
:10572000FFF7B0FF6849086000F0F6F867480078B6
:1057300005287DD2DFE800F0032880A6B90000200C
:1057400063490860634908605F49086062490880EE
:1057500062480088401C80B260490880142800DA42
:10576000A9E000205D4908805D495E48FFF7F0FE32
:1057700048B15C4800685C490860002052490860F4
:1057800001205249087096E04F4801685648006869
:1057900006F0E4FE0646FFF775FF0446214653482F
:1057A00006F0D4FD0546524A5249284605F05AFDF6
:1057B00005465148007801280AD1504844490860FC
:1057C0004F4A5049284605F04DFD4249086004E023
:1057D00000203F4908603F4805604B49204606F0DD
:1057E00081FE0AD24949204606F07CFD05D23A489E
:1057F0000088401C3849088002E0002036490880B3
:1058000035480088142808DA34480088401C80B2E3
:1058100032490880B0F5167F0DDB00202C49086066
:105820002C4908602D4908802B490880022000E09F
:105830003AE0264908703EE03548254908600020D6
:105840002449086025480088401C80B2234908800C
:10585000C82816DB00201E4908601E4908601F4941
:1058600008802C480078401C2A49087008460078B7
:10587000022803DB04201549087002E003201349C5
:10588000087018E0002012490860124908601348A7
:105890000088401C80B211490880282803DB0020C2
:1058A00008800A49087006E000BF00200849086027
:1058B0000849086000BF00BFBDE8F08194000020E7
:1058C000000083420AD7A33BBC00002071000020E7
:1058D0004400002048000020BA000020B80000204A
:1058E0007400002078000020C00000206F1283BCEC
:1058F0007CD9203F7CD920BF0B000020CDCCCC3DF3
:105900000AD7A33E48E1FABE0000A0C00000A040B4
:105910009A9919BE720000202DE9F047002408E092
:105920000020314921F81400304921F81400601C8E
:10593000C4B2242CF4DB2E480668B6F5487F01DD9E
:105940004FF44876002E00DA0026002543E0C5EB30
:10595000C500284908440788C5EBC5000844D0F8AD
:10596000038004E02449404606F0F0FA8046002116
:10597000404606F0B7FCF5D304E01F49404606F068
:10598000EDFD80461C49404606F0ACFDF5D9394690
:105990004046FFF797FEE8B11849404606F044FB41
:1059A000814606F053FCC4B2242C00DB23240F48AC
:1059B00030F81400401C0D4921F814000A4830F852
:1059C000140020B1084830F81400B84202DD06483F
:1059D00020F814706D1CB542B9DB09480088401CE2
:1059E00007490880BDE8F087D80A0020200B002076
:1059F0001C000020FB0D00200000B44300002041EB
:105A00007C00002010B5FFF7CBF800F001F810BDC6
:105A100010B5022000F010F8012000F021F800205D
:105A200000F014F8002000F037F8002000F02BF808
:105A3000002000F01FF810BD38B5044603230222F1
:105A40006B21D0200094FFF718FA38BD38B5044612
:105A5000022304221C21D0200094FFF70EFA38BD47
:105A600038B50446022304221B21D0200094FFF7FE
:105A700004FA38BD10B50446234601223721D02050
:105A8000FFF7DBF910BD10B50446234605226A2155
:105A9000D020FFF7D2F910BD10B5044623460622E8
:105AA0006B21D020FFF7C9F910BD00000EB5002012
:105AB0000090019002901348134908600021124899
:105AC0008160017301754FF46021C16100200E49AE
:105AD000486001210C480161FBF73EFF08B1FBF76C
